{
  "_format": "hh-sol-artifact-1",
  "contractName": "Plataforma",
  "sourceName": "contracts/Plataforma.sol",
  "abi": [
    {
      "inputs": [
        {
          "internalType": "uint256",
          "name": "_montoMinimo",
          "type": "uint256"
        }
      ],
      "stateMutability": "nonpayable",
      "type": "constructor"
    },
    {
      "anonymous": false,
      "inputs": [
        {
          "components": [
            {
              "internalType": "bytes32",
              "name": "idOrden",
              "type": "bytes32"
            },
            {
              "internalType": "bytes32",
              "name": "siguienteOrdenActiva",
              "type": "bytes32"
            },
            {
              "internalType": "bytes32",
              "name": "anteriorOrdenActiva",
              "type": "bytes32"
            },
            {
              "internalType": "bytes32",
              "name": "siguienteOrdenGemela",
              "type": "bytes32"
            },
            {
              "internalType": "bytes32",
              "name": "anteriorOrdenGemela",
              "type": "bytes32"
            },
            {
              "internalType": "address",
              "name": "vendedor",
              "type": "address"
            },
            {
              "internalType": "address",
              "name": "comprador",
              "type": "address"
            },
            {
              "internalType": "uint256",
              "name": "montoVenta",
              "type": "uint256"
            },
            {
              "internalType": "uint256",
              "name": "montoCompra",
              "type": "uint256"
            },
            {
              "internalType": "uint256",
              "name": "fechaCreacion",
              "type": "uint256"
            },
            {
              "internalType": "uint256",
              "name": "fechaFinalizacion",
              "type": "uint256"
            },
            {
              "internalType": "enum Datos.EstadoOrden",
              "name": "estado",
              "type": "uint8"
            },
            {
              "internalType": "enum Datos.TipoOrden",
              "name": "tipo",
              "type": "uint8"
            },
            {
              "internalType": "bool",
              "name": "existe",
              "type": "bool"
            },
            {
              "internalType": "string",
              "name": "tokenCompra",
              "type": "string"
            },
            {
              "internalType": "string",
              "name": "tokenVenta",
              "type": "string"
            }
          ],
          "indexed": false,
          "internalType": "struct Datos.Orden",
          "name": "respuesta",
          "type": "tuple"
        }
      ],
      "name": "NuevaOrden",
      "type": "event"
    },
    {
      "anonymous": false,
      "inputs": [
        {
          "components": [
            {
              "internalType": "address",
              "name": "direccion",
              "type": "address"
            },
            {
              "internalType": "uint256",
              "name": "indiceAdmin",
              "type": "uint256"
            },
            {
              "internalType": "uint256",
              "name": "indiceBloqueado",
              "type": "uint256"
            },
            {
              "internalType": "enum Datos.RolBilletera",
              "name": "rol",
              "type": "uint8"
            },
            {
              "internalType": "enum Datos.EstadoGeneral",
              "name": "estado",
              "type": "uint8"
            },
            {
              "internalType": "bool",
              "name": "existe",
              "type": "bool"
            },
            {
              "internalType": "string[]",
              "name": "ordenes",
              "type": "string[]"
            }
          ],
          "indexed": false,
          "internalType": "struct Datos.Billetera",
          "name": "respuesta",
          "type": "tuple"
        }
      ],
      "name": "NuevoAdministrador",
      "type": "event"
    },
    {
      "anonymous": false,
      "inputs": [
        {
          "components": [
            {
              "internalType": "string",
              "name": "ticker",
              "type": "string"
            },
            {
              "internalType": "address",
              "name": "contrato",
              "type": "address"
            },
            {
              "internalType": "address",
              "name": "oraculo",
              "type": "address"
            },
            {
              "internalType": "uint8",
              "name": "decimales",
              "type": "uint8"
            },
            {
              "internalType": "enum Datos.EstadoGeneral",
              "name": "estado",
              "type": "uint8"
            },
            {
              "internalType": "bool",
              "name": "existe",
              "type": "bool"
            }
          ],
          "indexed": false,
          "internalType": "struct Datos.Token",
          "name": "respuesta",
          "type": "tuple"
        }
      ],
      "name": "NuevoToken",
      "type": "event"
    },
    {
      "inputs": [
        {
          "internalType": "string",
          "name": "_ticker",
          "type": "string"
        }
      ],
      "name": "activarToken",
      "outputs": [
        {
          "internalType": "bool",
          "name": "resultado",
          "type": "bool"
        }
      ],
      "stateMutability": "nonpayable",
      "type": "function"
    },
    {
      "inputs": [
        {
          "internalType": "address",
          "name": "_billetera",
          "type": "address"
        }
      ],
      "name": "bloquearBilletera",
      "outputs": [
        {
          "internalType": "bool",
          "name": "modificado",
          "type": "bool"
        }
      ],
      "stateMutability": "nonpayable",
      "type": "function"
    },
    {
      "inputs": [],
      "name": "bloquearPlataforma",
      "outputs": [
        {
          "internalType": "bool",
          "name": "",
          "type": "bool"
        }
      ],
      "stateMutability": "nonpayable",
      "type": "function"
    },
    {
      "inputs": [
        {
          "internalType": "bytes32",
          "name": "_idOrden",
          "type": "bytes32"
        }
      ],
      "name": "buscarOrden",
      "outputs": [
        {
          "components": [
            {
              "internalType": "bytes32",
              "name": "idOrden",
              "type": "bytes32"
            },
            {
              "internalType": "bytes32",
              "name": "siguienteOrdenActiva",
              "type": "bytes32"
            },
            {
              "internalType": "bytes32",
              "name": "anteriorOrdenActiva",
              "type": "bytes32"
            },
            {
              "internalType": "bytes32",
              "name": "siguienteOrdenGemela",
              "type": "bytes32"
            },
            {
              "internalType": "bytes32",
              "name": "anteriorOrdenGemela",
              "type": "bytes32"
            },
            {
              "internalType": "address",
              "name": "vendedor",
              "type": "address"
            },
            {
              "internalType": "address",
              "name": "comprador",
              "type": "address"
            },
            {
              "internalType": "uint256",
              "name": "montoVenta",
              "type": "uint256"
            },
            {
              "internalType": "uint256",
              "name": "montoCompra",
              "type": "uint256"
            },
            {
              "internalType": "uint256",
              "name": "fechaCreacion",
              "type": "uint256"
            },
            {
              "internalType": "uint256",
              "name": "fechaFinalizacion",
              "type": "uint256"
            },
            {
              "internalType": "enum Datos.EstadoOrden",
              "name": "estado",
              "type": "uint8"
            },
            {
              "internalType": "enum Datos.TipoOrden",
              "name": "tipo",
              "type": "uint8"
            },
            {
              "internalType": "bool",
              "name": "existe",
              "type": "bool"
            },
            {
              "internalType": "string",
              "name": "tokenCompra",
              "type": "string"
            },
            {
              "internalType": "string",
              "name": "tokenVenta",
              "type": "string"
            }
          ],
          "internalType": "struct Datos.Orden",
          "name": "",
          "type": "tuple"
        }
      ],
      "stateMutability": "view",
      "type": "function"
    },
    {
      "inputs": [
        {
          "internalType": "string",
          "name": "_tokenCompra",
          "type": "string"
        },
        {
          "internalType": "string",
          "name": "_tokenVenta",
          "type": "string"
        },
        {
          "internalType": "uint256",
          "name": "_montoCompra",
          "type": "uint256"
        },
        {
          "internalType": "uint256",
          "name": "_montoVenta",
          "type": "uint256"
        }
      ],
      "name": "buscarOrdenGemela",
      "outputs": [
        {
          "components": [
            {
              "internalType": "bytes32",
              "name": "idOrden",
              "type": "bytes32"
            },
            {
              "internalType": "bytes32",
              "name": "siguienteOrdenActiva",
              "type": "bytes32"
            },
            {
              "internalType": "bytes32",
              "name": "anteriorOrdenActiva",
              "type": "bytes32"
            },
            {
              "internalType": "bytes32",
              "name": "siguienteOrdenGemela",
              "type": "bytes32"
            },
            {
              "internalType": "bytes32",
              "name": "anteriorOrdenGemela",
              "type": "bytes32"
            },
            {
              "internalType": "address",
              "name": "vendedor",
              "type": "address"
            },
            {
              "internalType": "address",
              "name": "comprador",
              "type": "address"
            },
            {
              "internalType": "uint256",
              "name": "montoVenta",
              "type": "uint256"
            },
            {
              "internalType": "uint256",
              "name": "montoCompra",
              "type": "uint256"
            },
            {
              "internalType": "uint256",
              "name": "fechaCreacion",
              "type": "uint256"
            },
            {
              "internalType": "uint256",
              "name": "fechaFinalizacion",
              "type": "uint256"
            },
            {
              "internalType": "enum Datos.EstadoOrden",
              "name": "estado",
              "type": "uint8"
            },
            {
              "internalType": "enum Datos.TipoOrden",
              "name": "tipo",
              "type": "uint8"
            },
            {
              "internalType": "bool",
              "name": "existe",
              "type": "bool"
            },
            {
              "internalType": "string",
              "name": "tokenCompra",
              "type": "string"
            },
            {
              "internalType": "string",
              "name": "tokenVenta",
              "type": "string"
            }
          ],
          "internalType": "struct Datos.Orden",
          "name": "orden",
          "type": "tuple"
        }
      ],
      "stateMutability": "view",
      "type": "function"
    },
    {
      "inputs": [
        {
          "internalType": "bytes32",
          "name": "_idOrden",
          "type": "bytes32"
        }
      ],
      "name": "cancelarOrden",
      "outputs": [
        {
          "internalType": "bool",
          "name": "exito",
          "type": "bool"
        }
      ],
      "stateMutability": "nonpayable",
      "type": "function"
    },
    {
      "inputs": [
        {
          "internalType": "string",
          "name": "_ticker",
          "type": "string"
        }
      ],
      "name": "consultarCotizacion",
      "outputs": [
        {
          "internalType": "int256",
          "name": "precio",
          "type": "int256"
        },
        {
          "internalType": "uint8",
          "name": "decimales",
          "type": "uint8"
        }
      ],
      "stateMutability": "view",
      "type": "function"
    },
    {
      "inputs": [
        {
          "internalType": "address",
          "name": "_billetera",
          "type": "address"
        }
      ],
      "name": "desbloquearBilletera",
      "outputs": [
        {
          "internalType": "bool",
          "name": "modificado",
          "type": "bool"
        }
      ],
      "stateMutability": "nonpayable",
      "type": "function"
    },
    {
      "inputs": [],
      "name": "desbloquearPlataforma",
      "outputs": [
        {
          "internalType": "bool",
          "name": "",
          "type": "bool"
        }
      ],
      "stateMutability": "nonpayable",
      "type": "function"
    },
    {
      "inputs": [
        {
          "internalType": "bytes32",
          "name": "_idOrden",
          "type": "bytes32"
        }
      ],
      "name": "ejecutarOrden",
      "outputs": [
        {
          "internalType": "bool",
          "name": "exito",
          "type": "bool"
        }
      ],
      "stateMutability": "nonpayable",
      "type": "function"
    },
    {
      "inputs": [
        {
          "internalType": "string",
          "name": "_string",
          "type": "string"
        }
      ],
      "name": "emptyString",
      "outputs": [
        {
          "internalType": "bool",
          "name": "",
          "type": "bool"
        }
      ],
      "stateMutability": "pure",
      "type": "function"
    },
    {
      "inputs": [
        {
          "internalType": "uint256",
          "name": "_monto",
          "type": "uint256"
        }
      ],
      "name": "establecerMontoMinimo",
      "outputs": [
        {
          "internalType": "bool",
          "name": "",
          "type": "bool"
        }
      ],
      "stateMutability": "nonpayable",
      "type": "function"
    },
    {
      "inputs": [
        {
          "internalType": "int256",
          "name": "number",
          "type": "int256"
        },
        {
          "internalType": "int256",
          "name": "exponent",
          "type": "int256"
        }
      ],
      "name": "expBySquaring",
      "outputs": [
        {
          "internalType": "int256",
          "name": "",
          "type": "int256"
        }
      ],
      "stateMutability": "pure",
      "type": "function"
    },
    {
      "inputs": [
        {
          "internalType": "address",
          "name": "_billetera",
          "type": "address"
        }
      ],
      "name": "hacerAdministrador",
      "outputs": [
        {
          "internalType": "bool",
          "name": "modificado",
          "type": "bool"
        }
      ],
      "stateMutability": "nonpayable",
      "type": "function"
    },
    {
      "inputs": [],
      "name": "listarAdministradores",
      "outputs": [
        {
          "components": [
            {
              "internalType": "address",
              "name": "direccion",
              "type": "address"
            },
            {
              "internalType": "uint256",
              "name": "indiceAdmin",
              "type": "uint256"
            },
            {
              "internalType": "uint256",
              "name": "indiceBloqueado",
              "type": "uint256"
            },
            {
              "internalType": "enum Datos.RolBilletera",
              "name": "rol",
              "type": "uint8"
            },
            {
              "internalType": "enum Datos.EstadoGeneral",
              "name": "estado",
              "type": "uint8"
            },
            {
              "internalType": "bool",
              "name": "existe",
              "type": "bool"
            },
            {
              "internalType": "string[]",
              "name": "ordenes",
              "type": "string[]"
            }
          ],
          "internalType": "struct Datos.Billetera[]",
          "name": "",
          "type": "tuple[]"
        }
      ],
      "stateMutability": "view",
      "type": "function"
    },
    {
      "inputs": [],
      "name": "listarBilleterasBloqueadas",
      "outputs": [
        {
          "components": [
            {
              "internalType": "address",
              "name": "direccion",
              "type": "address"
            },
            {
              "internalType": "uint256",
              "name": "indiceAdmin",
              "type": "uint256"
            },
            {
              "internalType": "uint256",
              "name": "indiceBloqueado",
              "type": "uint256"
            },
            {
              "internalType": "enum Datos.RolBilletera",
              "name": "rol",
              "type": "uint8"
            },
            {
              "internalType": "enum Datos.EstadoGeneral",
              "name": "estado",
              "type": "uint8"
            },
            {
              "internalType": "bool",
              "name": "existe",
              "type": "bool"
            },
            {
              "internalType": "string[]",
              "name": "ordenes",
              "type": "string[]"
            }
          ],
          "internalType": "struct Datos.Billetera[]",
          "name": "",
          "type": "tuple[]"
        }
      ],
      "stateMutability": "view",
      "type": "function"
    },
    {
      "inputs": [],
      "name": "listarMisOrdenes",
      "outputs": [
        {
          "components": [
            {
              "internalType": "bytes32",
              "name": "idOrden",
              "type": "bytes32"
            },
            {
              "internalType": "bytes32",
              "name": "siguienteOrdenActiva",
              "type": "bytes32"
            },
            {
              "internalType": "bytes32",
              "name": "anteriorOrdenActiva",
              "type": "bytes32"
            },
            {
              "internalType": "bytes32",
              "name": "siguienteOrdenGemela",
              "type": "bytes32"
            },
            {
              "internalType": "bytes32",
              "name": "anteriorOrdenGemela",
              "type": "bytes32"
            },
            {
              "internalType": "address",
              "name": "vendedor",
              "type": "address"
            },
            {
              "internalType": "address",
              "name": "comprador",
              "type": "address"
            },
            {
              "internalType": "uint256",
              "name": "montoVenta",
              "type": "uint256"
            },
            {
              "internalType": "uint256",
              "name": "montoCompra",
              "type": "uint256"
            },
            {
              "internalType": "uint256",
              "name": "fechaCreacion",
              "type": "uint256"
            },
            {
              "internalType": "uint256",
              "name": "fechaFinalizacion",
              "type": "uint256"
            },
            {
              "internalType": "enum Datos.EstadoOrden",
              "name": "estado",
              "type": "uint8"
            },
            {
              "internalType": "enum Datos.TipoOrden",
              "name": "tipo",
              "type": "uint8"
            },
            {
              "internalType": "bool",
              "name": "existe",
              "type": "bool"
            },
            {
              "internalType": "string",
              "name": "tokenCompra",
              "type": "string"
            },
            {
              "internalType": "string",
              "name": "tokenVenta",
              "type": "string"
            }
          ],
          "internalType": "struct Datos.Orden[]",
          "name": "",
          "type": "tuple[]"
        }
      ],
      "stateMutability": "view",
      "type": "function"
    },
    {
      "inputs": [
        {
          "internalType": "bytes32",
          "name": "_puntoPartida",
          "type": "bytes32"
        },
        {
          "internalType": "uint256",
          "name": "_ventana",
          "type": "uint256"
        }
      ],
      "name": "listarOrdenesActivas",
      "outputs": [
        {
          "components": [
            {
              "internalType": "bytes32",
              "name": "idOrden",
              "type": "bytes32"
            },
            {
              "internalType": "bytes32",
              "name": "siguienteOrdenActiva",
              "type": "bytes32"
            },
            {
              "internalType": "bytes32",
              "name": "anteriorOrdenActiva",
              "type": "bytes32"
            },
            {
              "internalType": "bytes32",
              "name": "siguienteOrdenGemela",
              "type": "bytes32"
            },
            {
              "internalType": "bytes32",
              "name": "anteriorOrdenGemela",
              "type": "bytes32"
            },
            {
              "internalType": "address",
              "name": "vendedor",
              "type": "address"
            },
            {
              "internalType": "address",
              "name": "comprador",
              "type": "address"
            },
            {
              "internalType": "uint256",
              "name": "montoVenta",
              "type": "uint256"
            },
            {
              "internalType": "uint256",
              "name": "montoCompra",
              "type": "uint256"
            },
            {
              "internalType": "uint256",
              "name": "fechaCreacion",
              "type": "uint256"
            },
            {
              "internalType": "uint256",
              "name": "fechaFinalizacion",
              "type": "uint256"
            },
            {
              "internalType": "enum Datos.EstadoOrden",
              "name": "estado",
              "type": "uint8"
            },
            {
              "internalType": "enum Datos.TipoOrden",
              "name": "tipo",
              "type": "uint8"
            },
            {
              "internalType": "bool",
              "name": "existe",
              "type": "bool"
            },
            {
              "internalType": "string",
              "name": "tokenCompra",
              "type": "string"
            },
            {
              "internalType": "string",
              "name": "tokenVenta",
              "type": "string"
            }
          ],
          "internalType": "struct Datos.Orden[]",
          "name": "",
          "type": "tuple[]"
        }
      ],
      "stateMutability": "view",
      "type": "function"
    },
    {
      "inputs": [
        {
          "internalType": "bool",
          "name": "_incluirSuspendidos",
          "type": "bool"
        }
      ],
      "name": "listarTokens",
      "outputs": [
        {
          "components": [
            {
              "internalType": "string",
              "name": "ticker",
              "type": "string"
            },
            {
              "internalType": "address",
              "name": "contrato",
              "type": "address"
            },
            {
              "internalType": "address",
              "name": "oraculo",
              "type": "address"
            },
            {
              "internalType": "uint8",
              "name": "decimales",
              "type": "uint8"
            },
            {
              "internalType": "enum Datos.EstadoGeneral",
              "name": "estado",
              "type": "uint8"
            },
            {
              "internalType": "bool",
              "name": "existe",
              "type": "bool"
            }
          ],
          "internalType": "struct Datos.Token[]",
          "name": "",
          "type": "tuple[]"
        }
      ],
      "stateMutability": "view",
      "type": "function"
    },
    {
      "inputs": [
        {
          "internalType": "string",
          "name": "_ticker",
          "type": "string"
        },
        {
          "internalType": "address",
          "name": "_oraculo",
          "type": "address"
        }
      ],
      "name": "modifcarOraculo",
      "outputs": [
        {
          "internalType": "bool",
          "name": "resultado",
          "type": "bool"
        }
      ],
      "stateMutability": "nonpayable",
      "type": "function"
    },
    {
      "inputs": [
        {
          "internalType": "string",
          "name": "_tokenCompra",
          "type": "string"
        },
        {
          "internalType": "string",
          "name": "_tokenVenta",
          "type": "string"
        },
        {
          "internalType": "uint256",
          "name": "_montoCompra",
          "type": "uint256"
        },
        {
          "internalType": "uint256",
          "name": "_montoVenta",
          "type": "uint256"
        },
        {
          "internalType": "enum Datos.TipoOrden",
          "name": "_tipo",
          "type": "uint8"
        }
      ],
      "name": "nuevaOrden",
      "outputs": [
        {
          "internalType": "bool",
          "name": "creada",
          "type": "bool"
        },
        {
          "components": [
            {
              "internalType": "bytes32",
              "name": "idOrden",
              "type": "bytes32"
            },
            {
              "internalType": "bytes32",
              "name": "siguienteOrdenActiva",
              "type": "bytes32"
            },
            {
              "internalType": "bytes32",
              "name": "anteriorOrdenActiva",
              "type": "bytes32"
            },
            {
              "internalType": "bytes32",
              "name": "siguienteOrdenGemela",
              "type": "bytes32"
            },
            {
              "internalType": "bytes32",
              "name": "anteriorOrdenGemela",
              "type": "bytes32"
            },
            {
              "internalType": "address",
              "name": "vendedor",
              "type": "address"
            },
            {
              "internalType": "address",
              "name": "comprador",
              "type": "address"
            },
            {
              "internalType": "uint256",
              "name": "montoVenta",
              "type": "uint256"
            },
            {
              "internalType": "uint256",
              "name": "montoCompra",
              "type": "uint256"
            },
            {
              "internalType": "uint256",
              "name": "fechaCreacion",
              "type": "uint256"
            },
            {
              "internalType": "uint256",
              "name": "fechaFinalizacion",
              "type": "uint256"
            },
            {
              "internalType": "enum Datos.EstadoOrden",
              "name": "estado",
              "type": "uint8"
            },
            {
              "internalType": "enum Datos.TipoOrden",
              "name": "tipo",
              "type": "uint8"
            },
            {
              "internalType": "bool",
              "name": "existe",
              "type": "bool"
            },
            {
              "internalType": "string",
              "name": "tokenCompra",
              "type": "string"
            },
            {
              "internalType": "string",
              "name": "tokenVenta",
              "type": "string"
            }
          ],
          "internalType": "struct Datos.Orden",
          "name": "",
          "type": "tuple"
        }
      ],
      "stateMutability": "nonpayable",
      "type": "function"
    },
    {
      "inputs": [
        {
          "internalType": "address",
          "name": "_contrato",
          "type": "address"
        },
        {
          "internalType": "address",
          "name": "_oraculo",
          "type": "address"
        }
      ],
      "name": "nuevoToken",
      "outputs": [
        {
          "internalType": "bool",
          "name": "",
          "type": "bool"
        }
      ],
      "stateMutability": "nonpayable",
      "type": "function"
    },
    {
      "inputs": [],
      "name": "ordenes",
      "outputs": [
        {
          "internalType": "uint256",
          "name": "cantidadTotal",
          "type": "uint256"
        },
        {
          "internalType": "uint256",
          "name": "cantidadActivas",
          "type": "uint256"
        },
        {
          "internalType": "bytes32",
          "name": "ultimaOrdenActiva",
          "type": "bytes32"
        }
      ],
      "stateMutability": "view",
      "type": "function"
    },
    {
      "inputs": [],
      "name": "plataforma",
      "outputs": [
        {
          "internalType": "enum Datos.EstadoGeneral",
          "name": "estado",
          "type": "uint8"
        },
        {
          "internalType": "address",
          "name": "propietario",
          "type": "address"
        },
        {
          "internalType": "uint256",
          "name": "montoMinimoUSD",
          "type": "uint256"
        }
      ],
      "stateMutability": "view",
      "type": "function"
    },
    {
      "inputs": [
        {
          "internalType": "address",
          "name": "_billetera",
          "type": "address"
        }
      ],
      "name": "quitarAdministrador",
      "outputs": [
        {
          "internalType": "bool",
          "name": "modificado",
          "type": "bool"
        }
      ],
      "stateMutability": "nonpayable",
      "type": "function"
    },
    {
      "inputs": [
        {
          "internalType": "int256",
          "name": "number",
          "type": "int256"
        },
        {
          "internalType": "int256",
          "name": "exponent",
          "type": "int256"
        }
      ],
      "name": "safeMulExp",
      "outputs": [
        {
          "internalType": "int256",
          "name": "",
          "type": "int256"
        }
      ],
      "stateMutability": "pure",
      "type": "function"
    },
    {
      "inputs": [
        {
          "internalType": "string",
          "name": "_ticker",
          "type": "string"
        }
      ],
      "name": "suspenderToken",
      "outputs": [
        {
          "internalType": "bool",
          "name": "resultado",
          "type": "bool"
        }
      ],
      "stateMutability": "nonpayable",
      "type": "function"
    },
    {
      "inputs": [
        {
          "internalType": "string",
          "name": "",
          "type": "string"
        }
      ],
      "name": "tokensRegistrados",
      "outputs": [
        {
          "internalType": "string",
          "name": "ticker",
          "type": "string"
        },
        {
          "internalType": "address",
          "name": "contrato",
          "type": "address"
        },
        {
          "internalType": "address",
          "name": "oraculo",
          "type": "address"
        },
        {
          "internalType": "uint8",
          "name": "decimales",
          "type": "uint8"
        },
        {
          "internalType": "enum Datos.EstadoGeneral",
          "name": "estado",
          "type": "uint8"
        },
        {
          "internalType": "bool",
          "name": "existe",
          "type": "bool"
        }
      ],
      "stateMutability": "view",
      "type": "function"
    }
  ],
  "bytecode": "0x60806040523480156200001157600080fd5b5060405162005ec638038062005ec683398101604081905262000034916200005c565b600080546001929092556001600160a81b0319909116336101000260ff191617905562000076565b6000602082840312156200006f57600080fd5b5051919050565b615e4080620000866000396000f3fe608060405234801561001057600080fd5b50600436106101c45760003560e01c806359338dff116100f9578063c7b55d9211610097578063e6da48bd11610071578063e6da48bd14610402578063fa793bdf14610415578063fb2f1a8914610428578063fe5d590e1461045957600080fd5b8063c7b55d92146103d4578063d169e9f2146103dc578063dd47bdaf146103ef57600080fd5b806398fd89b7116100d357806398fd89b714610384578063b72e17e014610397578063b9b999f51461039f578063c20fc17b146103b457600080fd5b806359338dff1461032b5780637debf02a1461034c57806381e9de681461037157600080fd5b806349668238116101665780634ec7e00d116101405780634ec7e00d146102d357806351bd751f146102e6578063534933581461031057806355f7e73f1461032357600080fd5b8063496682381461027e5780634a884e1f146102ab5780634bd368c8146102c057600080fd5b806327985d80116101a257806327985d80146102175780632f0271111461022a5780633282ebc81461024a578063366226c41461026b57600080fd5b8063092e6f08146101c957806320f340bc146101f15780632101472d14610204575b600080fd5b6101dc6101d7366004614bab565b61046c565b60405190151581526020015b60405180910390f35b6101dc6101ff366004614bab565b610766565b6101dc610212366004614bcd565b6109cb565b6101dc610225366004614bcd565b610d9a565b61023d610238366004614bcd565b6117ec565b6040516101e89190614d84565b61025d610258366004614d97565b611a97565b6040519081526020016101e8565b6101dc610279366004614bab565b611aeb565b60055460065460075461029092919083565b604080519384526020840192909252908201526060016101e8565b6102b3611d59565b6040516101e89190614e0e565b6101dc6102ce366004614f98565b511590565b6101dc6102e1366004614bab565b611fdf565b6102f96102f4366004614f98565b6121e5565b6040805192835260ff9091166020830152016101e8565b6101dc61031e366004614fd4565b612337565b6101dc61249b565b61033e610339366004615021565b6125af565b6040516101e89291906150b0565b61035f61035a366004614f98565b61319e565b6040516101e8969594939291906150cb565b6101dc61037f366004614bcd565b613280565b61025d610392366004614d97565b613392565b6101dc6133f2565b6103a76134fa565b6040516101e89190615122565b6103c76103c2366004615192565b613878565b6040516101e891906151af565b6102b3613b0b565b6103a76103ea366004614d97565b613d88565b6101dc6103fd36600461525a565b6140bd565b6101dc610410366004614f98565b6145d1565b61023d610423366004615284565b614709565b60005460015461044a9160ff8116916101009091046001600160a01b03169083565b6040516101e8939291906152f7565b6101dc610467366004614f98565b6149ad565b336000908152600b602052604081206003015462010000900460ff1680156104ba57506001336000908152600b602052604090206003015460ff1660018111156104b8576104b8614be6565b145b806104d4575060005461010090046001600160a01b031633145b6104f95760405162461bcd60e51b81526004016104f090615321565b60405180910390fd5b506000813b801561051c5760405162461bcd60e51b81526004016104f090615364565b6001600160a01b0383166105425760405162461bcd60e51b81526004016104f09061539b565b6001600160a01b0383166000908152600b602052604090206003015462010000900460ff166105ac5760405162461bcd60e51b81526020600482015260166024820152754c612062696c6c6574657261206e6f2065786973746560501b60448201526064016104f0565b60016001600160a01b0384166000908152600b6020526040902060030154610100900460ff1660018111156105e3576105e3614be6565b1461063c5760405162461bcd60e51b815260206004820152602360248201527f4c612062696c6c657465726120796120736520656e6375656e7472612061637460448201526269766160e81b60648201526084016104f0565b6001600160a01b0383166000908152600b6020526040902060038101805461ff001916905560020154600c54610674906001906153ff565b811461070b57600c80546000919061068e906001906153ff565b8154811061069e5761069e615412565b600091825260209091200154600c80546001600160a01b0390921692508291849081106106cd576106cd615412565b600091825260208083209190910180546001600160a01b0319166001600160a01b03948516179055929091168152600b909152604090206002018190555b6001600160a01b0384166000908152600b6020526040812060020155600c80548061073857610738615428565b600082815260209020810160001990810180546001600160a01b03191690550190555060019150505b919050565b336000908152600b602052604081206003015462010000900460ff1680156107b457506001336000908152600b602052604090206003015460ff1660018111156107b2576107b2614be6565b145b806107ce575060005461010090046001600160a01b031633145b6107ea5760405162461bcd60e51b81526004016104f090615321565b506000813b801561080d5760405162461bcd60e51b81526004016104f090615364565b6001600160a01b0383166108335760405162461bcd60e51b81526004016104f09061539b565b60006001600160a01b0384166000908152600b6020526040902060030154610100900460ff16600181111561086a5761086a614be6565b146108c65760405162461bcd60e51b815260206004820152602660248201527f4c612062696c6c657465726120796120736520656e6375656e74726120626c6f60448201526571756561646160d01b60648201526084016104f0565b6001600160a01b0383166000818152600b60205260408120600301805461ff001916610100179055600c805460018181018355928290527fdf6966c971051c3d54ec59162606531493a51404a002842f56009d7e5cf4a8c70180546001600160a01b031916909317909255905461093d91906153ff565b6001600160a01b0384166000908152600b6020526040902060028101919091556003015462010000900460ff166109c2576001600160a01b0383166000818152600b602052604081206003810180546201000062ff00001982168117835583546001600160a01b031916909517909255919262ff00ff19909116176001835b02179055505b50600192915050565b600081815260026020526040812060058101546001600160a01b03163314610a4e5760405162461bcd60e51b815260206004820152603060248201527f536f6c6f20656c2063726561646f72206465206c61206f7264656e207075656460448201526f652063616e63656c6172206d69736d6160801b60648201526084016104f0565b6000600b82015460ff166002811115610a6957610a69614be6565b14610ace5760405162461bcd60e51b815260206004820152602f60248201527f4c61206f7264656e20796120736520656e6375656e7472612063616e63656c6160448201526e6461206f2066696e616c697a61646160881b60648201526084016104f0565b6000600882600d01604051610ae39190615478565b90815260405190819003602001812060010154600784015463a9059cbb60e01b835233600484015260248301526001600160a01b03169150600090829063a9059cbb906044016020604051808303816000875af1158015610b48573d6000803e3d6000fd5b505050506040513d601f19601f82011682018060405250810190610b6c91906154ee565b905080610bd05760405162461bcd60e51b815260206004820152602c60248201527f46616c6c6f20656e206c61206465766f6c7563696f6e20646520746f6b656e7360448201526b1030b6103b32b73232b237b960a11b60648201526084016104f0565b600b8301805460ff1916600190811790915542600a850155808401546000908152600260208190526040808320918701548352909120600654919290919003610c1d576000600755610c5f565b845460075403610c3857815460075560006002830155610c5f565b6001850154600003610c505760006001820155610c5f565b81546001820155805460028301555b600060018601819055600286018190556006805491610c7d8361550b565b9190505550600085600c0186600d0187600801548860070154604051602001610ca9949392919061559f565b60408051601f19818403018152918152815160209283012060008181526004808552838220908b01548252600290945282812060038b0154825292902089546001850154919750929550909350148015610d07575086546002820154145b15610d27576000600182018190556002820155805460ff19168155610d7a565b8654600182015403610d46578354600182015560006004850155610d7a565b8654600282015403610d65578254600282015560006004840155610d7a565b60038088015490840155600480880154908501555b505060006003860181905560049095019490945550600195945050505050565b60008060005460ff166001811115610db457610db4614be6565b14610dd15760405162461bcd60e51b81526004016104f0906155d8565b336000908152600b602052604090206003015462010000900460ff168015610e2457506000336000908152600b6020526040902060030154610100900460ff166001811115610e2257610e22614be6565b145b80610e485750336000908152600b602052604090206003015462010000900460ff16155b610e945760405162461bcd60e51b815260206004820152601b60248201527f4c612062696c6c6574657261206573746120626c6f717565616461000000000060448201526064016104f0565b6000828152600260205260409020600b81015462010000900460ff16610f185760405162461bcd60e51b815260206004820152603360248201527f4c61206f7264656e206120656a656375746172206e6f20657869737465206f20604482015272656c20496420657320696e636f72726563746f60681b60648201526084016104f0565b60058101546001600160a01b03163303610f8e5760405162461bcd60e51b815260206004820152603160248201527f456c2063726561646f72206465206c61206f7264656e206e6f20707565646520604482015270656a656375746172206c61206d69736d6160781b60648201526084016104f0565b600060058201546001600160a01b03166000908152600b6020526040902060030154610100900460ff166001811115610fc957610fc9614be6565b146110355760405162461bcd60e51b815260206004820152603660248201527f4c61206f7264656e20736520656e6375656e74726120626c6f717565616461206044820152753c9037379039b290383ab2b2329032b532b1baba30b960511b60648201526084016104f0565b6000600b82015460ff16600281111561105057611050614be6565b146110a85760405162461bcd60e51b815260206004820152602260248201527f4c61206f7264656e207961206e6f20736520656e6375656e7472612061637469604482015261766160f01b60648201526084016104f0565b6001600b820154610100900460ff1660018111156110c8576110c8614be6565b0361129b5760008061116583600d0180546110e29061543e565b80601f016020809104026020016040519081016040528092919081815260200182805461110e9061543e565b801561115b5780601f106111305761010080835404028352916020019161115b565b820191906000526020600020905b81548152906001019060200180831161113e57829003601f168201915b50505050506121e5565b9150915060008061117e85600c0180546110e29061543e565b915091508160001415801561119257508315155b6111ed5760405162461bcd60e51b815260206004820152602660248201527f4e6f207365207075646f206f6274656e6572206461746f7320646520636f74696044820152653d30b1b4b7b760d11b60648201526084016104f0565b600080600887600d016040516112039190615478565b9081526040519081900360200181206002015460ff600160a01b90910416915060009060089061123790600c8b0190615478565b908152602001604051809103902060020160149054906101000a900460ff1660ff1690508560ff16828560ff16830103039250505061129083868860070154611280919061561b565b61128a9190615661565b82611a97565b600887015550505050505b6000600882600c016040516112b09190615478565b908152604051908190036020018120600101546370a0823160e01b82523360048301526001600160a01b0316915060009082906370a0823190602401602060405180830381865afa158015611309573d6000803e3d6000fd5b505050506040513d601f19601f8201168201806040525081019061132d919061568f565b905082600801548110156113535760405162461bcd60e51b81526004016104f0906156a8565b604051636eb1769f60e11b81523360048201523060248201526000906001600160a01b0384169063dd62ed3e90604401602060405180830381865afa1580156113a0573d6000803e3d6000fd5b505050506040513d601f19601f820116820180604052508101906113c4919061568f565b905083600801548110156113ea5760405162461bcd60e51b81526004016104f0906156f0565b600584015460088501546040516323b872dd60e01b81523360048201526001600160a01b03928316602482015260448101919091526000918516906323b872dd906064016020604051808303816000875af115801561144d573d6000803e3d6000fd5b505050506040513d601f19601f8201168201806040525081019061147191906154ee565b9050806114d85760405162461bcd60e51b815260206004820152602f60248201527f46616c6c6f20656e206c61207472616e73666572656e63696120646520746f6b60448201526e32b7399030b6103b32b73232b237b960891b60648201526084016104f0565b6000600886600d016040516114ed9190615478565b90815260405190819003602001812060010154600788015463a9059cbb60e01b835233600484015260248301526001600160a01b03169150819063a9059cbb906044016020604051808303816000875af115801561154f573d6000803e3d6000fd5b505050506040513d601f19601f8201168201806040525081019061157391906154ee565b9150816115db5760405162461bcd60e51b815260206004820152603060248201527f46616c6c6f20656e206c61207472616e73666572656e63696120646520746f6b60448201526f32b7399030b61031b7b6b83930b237b960811b60648201526084016104f0565b600b86018054600260ff199091168117909155600680880180546001600160a01b0319163317905542600a890155600180890154600090815260208490526040808220948b0154825290209154900361163857600060075561167a565b8754600754036116535781546007556000600283015561167a565b600188015460000361166b576000600182015561167a565b81546001820155805460028301555b6000600189018190556002890181905560068054916116988361550b565b9091555050336000818152600b6020908152604080832080546001600160a01b03191690941784556003909301805462ffffff19166201000017905560088b015460078c0154935192936116f893600c8e0193600d8f019392910161559f565b60408051601f19818403018152918152815160209283012060008181526004808552838220908e01548252600290945282812060038e015482529290208c546001850154919750929550909350148015611756575089546002820154145b15611776576000600182018190556002820155805460ff191681556117c9565b89546001820154036117955783546001820155600060048501556117c9565b89546002820154036117b45782546002820155600060048401556117c9565b6003808b0154908401556004808b0154908501555b505060006003890181905560049098019790975550600198975050505050505050565b6117f4614ad8565b6000828152600260205260409020600b81015462010000900460ff1661185c5760405162461bcd60e51b815260206004820152601d60248201527f4c61206f7264656e20736f6c69636974616461206e6f2065786973746500000060448201526064016104f0565b6040805161020081018252825481526001830154602082015260028084015492820192909252600383015460608201526004830154608082015260058301546001600160a01b0390811660a083015260068401541660c0820152600783015460e082015260088301546101008201526009830154610120820152600a830154610140820152600b8301549091839161016084019160ff9091169081111561190557611905614be6565b600281111561191657611916614be6565b8152602001600b820160019054906101000a900460ff16600181111561193e5761193e614be6565b600181111561194f5761194f614be6565b8152600b82015462010000900460ff1615156020820152600c8201805460409092019161197b9061543e565b80601f01602080910402602001604051908101604052809291908181526020018280546119a79061543e565b80156119f45780601f106119c9576101008083540402835291602001916119f4565b820191906000526020600020905b8154815290600101906020018083116119d757829003601f168201915b50505050508152602001600d82018054611a0d9061543e565b80601f0160208091040260200160405190810160405280929190818152602001828054611a399061543e565b8015611a865780601f10611a5b57610100808354040283529160200191611a86565b820191906000526020600020905b815481529060010190602001808311611a6957829003601f168201915b505050505081525050915050919050565b600081600003611aa8575081611ae5565b6000821315611acd57611abc600a83613392565b611ac6908461561b565b9050611ae5565b611adb600a6103928461573b565b611ac69084615661565b92915050565b6000805461010090046001600160a01b03163314611b1b5760405162461bcd60e51b81526004016104f090615757565b506000813b8015611b3e5760405162461bcd60e51b81526004016104f090615364565b6001600160a01b038316611b645760405162461bcd60e51b81526004016104f09061539b565b6001600160a01b0383166000908152600b602052604090206003015462010000900460ff16611bce5760405162461bcd60e51b81526020600482015260166024820152754c612062696c6c6574657261206e6f2065786973746560501b60448201526064016104f0565b60016001600160a01b0384166000908152600b602052604090206003015460ff166001811115611c0057611c00614be6565b14611c5d5760405162461bcd60e51b815260206004820152602760248201527f4c612062696c6c6574657261206e6f207469656e6520726f6c2061646d696e6960448201526639ba3930b237b960c91b60648201526084016104f0565b6001600160a01b0383166000908152600b6020526040902060038101805460ff19169055600190810154600d549091611c95916153ff565b8114611d2c57600d805460009190611caf906001906153ff565b81548110611cbf57611cbf615412565b600091825260209091200154600d80546001600160a01b039092169250829184908110611cee57611cee615412565b600091825260208083209190910180546001600160a01b0319166001600160a01b03948516179055929091168152600b909152604090206001018190555b6001600160a01b0384166000908152600b6020526040812060010155600d80548061073857610738615428565b6060611d63614b57565b600d546000906001600160401b03811115611d8057611d80614ed5565b604051908082528060200260200182016040528015611db957816020015b611da6614b57565b815260200190600190039081611d9e5790505b5090506000805b600d54811015611fd657600b6000600d8381548110611de157611de1615412565b60009182526020808320909101546001600160a01b039081168452838201949094526040928301909120825160e08101845281549094168452600181810154928501929092526002810154928401929092526003820154606084019160ff90911690811115611e5257611e52614be6565b6001811115611e6357611e63614be6565b81526020016003820160019054906101000a900460ff166001811115611e8b57611e8b614be6565b6001811115611e9c57611e9c614be6565b8152600382015462010000900460ff161515602080830191909152600483018054604080518285028101850182528281529401939260009084015b82821015611f83578382906000526020600020018054611ef69061543e565b80601f0160208091040260200160405190810160405280929190818152602001828054611f229061543e565b8015611f6f5780601f10611f4457610100808354040283529160200191611f6f565b820191906000526020600020905b815481529060010190602001808311611f5257829003601f168201915b505050505081526020019060010190611ed7565b505050508152505093508360a0015115611fc45783838381518110611faa57611faa615412565b60200260200101819052508180611fc090615798565b9250505b80611fce81615798565b915050611dc0565b50909392505050565b6000805461010090046001600160a01b0316331461200f5760405162461bcd60e51b81526004016104f090615757565b506000813b80156120325760405162461bcd60e51b81526004016104f090615364565b6001600160a01b0383166120585760405162461bcd60e51b81526004016104f09061539b565b60016001600160a01b0384166000908152600b602052604090206003015460ff16600181111561208a5761208a614be6565b036120ea5760405162461bcd60e51b815260206004820152602a60248201527f4c612062696c6c6574657261207961207469656e6520726f6c2064652061646d60448201526934b734b9ba3930b237b960b11b60648201526084016104f0565b6001600160a01b0383166000818152600b60205260408120600301805460ff19166001908117909155600d80548083018255928190527fd7b6990105719101dabeb77144f2a3385c8033acd3af97e9423a695e81ad1eb590920180546001600160a01b0319169093179092555461216191906153ff565b6001600160a01b0384166000908152600b6020526040902060018101919091556003015462010000900460ff166109c2576001600160a01b0383166000818152600b602052604081206003810180546201000062ff00001982168117835583546001600160a01b031916909517909255919262ffff001990911617610100836109bc565b6000806008836040516121f891906157b1565b9081526040519081900360200190206002015460ff600160b01b909104166122325760405162461bcd60e51b81526004016104f0906157cd565b600060088460405161224491906157b1565b9081526040805191829003602001822060020154633fabe5a360e21b835290516001600160a01b039091169250829163feaf968c9160048083019260a09291908290030181865afa15801561229d573d6000803e3d6000fd5b505050506040513d601f19601f820116820180604052508101906122c1919061582c565b50506040805163313ce56760e01b815290519296506001600160a01b038516935063313ce56792600480830193506020928290030181865afa15801561230b573d6000803e3d6000fd5b505050506040513d601f19601f8201168201806040525081019061232f919061587c565b915050915091565b336000908152600b602052604081206003015462010000900460ff16801561238557506001336000908152600b602052604090206003015460ff16600181111561238357612383614be6565b145b8061239f575060005461010090046001600160a01b031633145b6123bb5760405162461bcd60e51b81526004016104f090615321565b600090506008836040516123cf91906157b1565b9081526040519081900360200190206002015460ff600160b01b909104166124095760405162461bcd60e51b81526004016104f0906157cd565b813b806124285760405162461bcd60e51b81526004016104f09061589f565b6001600160a01b03831661244e5760405162461bcd60e51b81526004016104f0906158e3565b8260088560405161245f91906157b1565b90815260405190819003602001902060020180546001600160a01b03929092166001600160a01b03199092169190911790555060019392505050565b336000908152600b602052604081206003015462010000900460ff1680156124e957506001336000908152600b602052604090206003015460ff1660018111156124e7576124e7614be6565b145b80612503575060005461010090046001600160a01b031633145b61251f5760405162461bcd60e51b81526004016104f090615321565b6000805460ff16600181111561253757612537614be6565b146125945760405162461bcd60e51b815260206004820152602760248201527f4c6120706c617461666f726d6120796120736520656e6375656e74726120626c6044820152666f71756561646160c81b60648201526084016104f0565b600080546001919060ff191682805b02179055506001905090565b60006125b9614ad8565b6000805460ff1660018111156125d1576125d1614be6565b146125ee5760405162461bcd60e51b81526004016104f0906155d8565b336000908152600b602052604090206003015462010000900460ff16801561264157506000336000908152600b6020526040902060030154610100900460ff16600181111561263f5761263f614be6565b145b806126655750336000908152600b602052604090206003015462010000900460ff16155b6126b15760405162461bcd60e51b815260206004820152601b60248201527f4c612062696c6c6574657261206573746120626c6f717565616461000000000060448201526064016104f0565b60006126bc88511590565b806126c657508651155b806126cf575084155b806126f45750851580156126f4575060008460018111156126f2576126f2614be6565b145b156127415760405162461bcd60e51b815260206004820152601b60248201527f4e6f207365206163657074616e2063616d706f7320766163696f73000000000060448201526064016104f0565b60008511801561276d5750600086118061276d5750600084600181111561276a5761276a614be6565b14155b6127c55760405162461bcd60e51b815260206004820152602360248201527f4c6f73206d6f6e746f7320696e6772657361646f7320736f6e20696e76616c69604482015262646f7360e81b60648201526084016104f0565b6008886040516127d591906157b1565b9081526040519081900360200190206002015460ff600160b01b909104168015612829575060088760405161280a91906157b1565b9081526040519081900360200190206002015460ff600160b01b909104165b61288e5760405162461bcd60e51b815260206004820152603060248201527f4c6f7320746f6b656e73206e6f20736f6e2076616c69646f73206f206e6f206560448201526f7374616e207265676973747261646f7360801b60648201526084016104f0565b60006008896040516128a091906157b1565b9081526040519081900360200190206002015460ff600160a81b9091041660018111156128cf576128cf614be6565b14801561291a575060006008886040516128e991906157b1565b9081526040519081900360200190206002015460ff600160a81b90910416600181111561291857612918614be6565b145b6129855760405162461bcd60e51b815260206004820152603660248201527f556e6f206f20616d626f7320746f6b656e7320736520656e6375656e7472616e6044820152751034b730b1ba34bb37b9903830b9309037b832b930b960511b60648201526084016104f0565b60008060006129938a6121e5565b60ff1691509150600060088b6040516129ac91906157b1565b9081526040519081900360200190206002015460ff600160a01b9091041690506129d6828261592d565b6129e190600a615a24565b6129eb848b615a30565b6129f59190615a47565b9350505050600060010154811015612a755760405162461bcd60e51b815260206004820152603e60248201527f456c206d6f6e746f206120696e74657263616d6269617220657320696e66657260448201527f696f7220616c206d696e696d6f20616365707461626c6520656e20555344000060648201526084016104f0565b60008060088a604051612a8891906157b1565b908152604051908190036020018120600101546370a0823160e01b82523360048301526001600160a01b0316915081906370a0823190602401602060405180830381865afa158015612ade573d6000803e3d6000fd5b505050506040513d601f19601f82011682018060405250810190612b02919061568f565b915087821015612b245760405162461bcd60e51b81526004016104f0906156a8565b604051636eb1769f60e11b81523360048201523060248201526001600160a01b0382169063dd62ed3e90604401602060405180830381865afa158015612b6e573d6000803e3d6000fd5b505050506040513d601f19601f82011682018060405250810190612b92919061568f565b915087821015612bb45760405162461bcd60e51b81526004016104f0906156f0565b6040516323b872dd60e01b8152336004820152306024820152604481018990526000906001600160a01b038316906323b872dd906064016020604051808303816000875af1158015612c0a573d6000803e3d6000fd5b505050506040513d601f19601f82011682018060405250810190612c2e91906154ee565b905080612c955760405162461bcd60e51b815260206004820152602f60248201527f46616c6c6f20656e206c61207472616e73666572656e63696120646520746f6b60448201526e656e7320616c20636f6e747261746f60881b60648201526084016104f0565b600554604051612caf918e918e918c913390602001615a5b565b60408051601f19818403018152918152815160209283012060008181526002909352908220600580549298509092612ce683615798565b9091555050858155600c8101612cfc8e82615b00565b50600881018b9055600d8101612d128d82615b00565b50600781018a90556005810180546001600160a01b03191633179055426009820155600b8101805460ff19811682558a919061ffff1916610100836001811115612d5e57612d5e614be6565b0217905550600b8101805462ff000019166201000017905560075460009015612daa57506007546000908152600260208190526040822083548183015580546001850155908301919091555b815460075560068054906000612dbf83615798565b909155505033600081815260036020818152604080842087548154600181810184559287528487200155858552600b909252832080546001600160a01b0319169094178455920180549192909160ff191690830217905550336000908152600b60205260408120600301805461ff0019166101008302179055506001600b6000336001600160a01b03166001600160a01b0316815260200190815260200160002060030160026101000a81548160ff02191690831515021790555060008e8e8e8e604051602001612e939493929190615bbf565b60408051601f198184030181529181528151602092830120600081815260049093529082208054919350919060ff16612ede57815460ff191660019081178355855490830155612f0d565b506002818101546000908152602091909152604081208554600380830191909155815460048801558601919091555b8454600283015560405160019c507f21351a354ee6f7993567e74dda1c834ebab845c45d99fa57bb1de49351c5839290612f48908790615be4565b60405180910390a16040805161020081018252865481526001870154602082015260028088015492820192909252600387015460608201526004870154608082015260058701546001600160a01b0390811660a083015260068801541660c0820152600787015460e082015260088701546101008201526009870154610120820152600a870154610140820152600b8701548e92889291839161016084019160ff1690811115612ffa57612ffa614be6565b600281111561300b5761300b614be6565b8152602001600b820160019054906101000a900460ff16600181111561303357613033614be6565b600181111561304457613044614be6565b8152600b82015462010000900460ff1615156020820152600c820180546040909201916130709061543e565b80601f016020809104026020016040519081016040528092919081815260200182805461309c9061543e565b80156130e95780601f106130be576101008083540402835291602001916130e9565b820191906000526020600020905b8154815290600101906020018083116130cc57829003601f168201915b50505050508152602001600d820180546131029061543e565b80601f016020809104026020016040519081016040528092919081815260200182805461312e9061543e565b801561317b5780601f106131505761010080835404028352916020019161317b565b820191906000526020600020905b81548152906001019060200180831161315e57829003601f168201915b50505050508152505090509b509b50505050505050505050509550959350505050565b80516020818301810180516008825292820191909301209152805481906131c49061543e565b80601f01602080910402602001604051908101604052809291908181526020018280546131f09061543e565b801561323d5780601f106132125761010080835404028352916020019161323d565b820191906000526020600020905b81548152906001019060200180831161322057829003601f168201915b505050600184015460029094015492936001600160a01b0390811693908116925060ff600160a01b820481169250600160a81b8204811691600160b01b90041686565b336000908152600b602052604081206003015462010000900460ff1680156132ce57506001336000908152600b602052604090206003015460ff1660018111156132cc576132cc614be6565b145b806132e8575060005461010090046001600160a01b031633145b6133045760405162461bcd60e51b81526004016104f090615321565b6000805460ff16600181111561331c5761331c614be6565b146133395760405162461bcd60e51b81526004016104f0906155d8565b600082116133895760405162461bcd60e51b815260206004820181905260248201527f456c206d6f6e746f206e7565766f206e6f20707565646520736572206365726f60448201526064016104f0565b50600190815590565b6000816000036133a457506001611ae5565b6133af600283615cf0565b6000036133ce57611ac66133c3848061561b565b610392600285615661565b611abc6133db848061561b565b60026133e8600186615d04565b6103929190615661565b336000908152600b602052604081206003015462010000900460ff16801561344057506001336000908152600b602052604090206003015460ff16600181111561343e5761343e614be6565b145b8061345a575060005461010090046001600160a01b031633145b6134765760405162461bcd60e51b81526004016104f090615321565b600160005460ff16600181111561348f5761348f614be6565b146134e85760405162461bcd60e51b8152602060048201526024808201527f4c6120706c617461666f726d6120796120736520656e6375656e7472612061636044820152637469766160e01b60648201526084016104f0565b60008054819060ff19166001826125a3565b33600090815260036020908152604080832080548251818502810185019093528083526060949383018282801561355057602002820191906000526020600020905b81548152602001906001019080831161353c575b50505050509050600081516001600160401b0381111561357257613572614ed5565b6040519080825280602002602001820160405280156135ab57816020015b613598614ad8565b8152602001906001900390816135905790505b50336000908152600b602052604090206003015490915062010000900460ff1615611ae55760005b825181101561387157600260000160008483815181106135f5576135f5615412565b60209081029190910181015182528181019290925260409081016000208151610200810183528154815260018201549381019390935260028082015492840192909252600381015460608401526004810154608084015260058101546001600160a01b0390811660a085015260068201541660c0840152600781015460e084015260088101546101008401526009810154610120840152600a810154610140840152600b810154909161016084019160ff16908111156136b7576136b7614be6565b60028111156136c8576136c8614be6565b8152602001600b820160019054906101000a900460ff1660018111156136f0576136f0614be6565b600181111561370157613701614be6565b8152600b82015462010000900460ff1615156020820152600c8201805460409092019161372d9061543e565b80601f01602080910402602001604051908101604052809291908181526020018280546137599061543e565b80156137a65780601f1061377b576101008083540402835291602001916137a6565b820191906000526020600020905b81548152906001019060200180831161378957829003601f168201915b50505050508152602001600d820180546137bf9061543e565b80601f01602080910402602001604051908101604052809291908181526020018280546137eb9061543e565b80156138385780601f1061380d57610100808354040283529160200191613838565b820191906000526020600020905b81548152906001019060200180831161381b57829003601f168201915b50505050508152505082828151811061385357613853615412565b6020026020010181905250808061386990615798565b9150506135d3565b5092915050565b6040805160c08101825260608082526000602083018190529282018390528181018390526080820183905260a08201929092526000600a546001600160401b038111156138c7576138c7614ed5565b60405190808252806020026020018201604052801561392857816020015b6040805160c0810182526060808252600060208084018290529383018190529082018190526080820181905260a082015282526000199092019101816138e55790505b5090506000805b600954811015613b015760086009828154811061394e5761394e615412565b906000526020600020016040516139659190615478565b90815260200160405180910390206040518060c001604052908160008201805461398e9061543e565b80601f01602080910402602001604051908101604052809291908181526020018280546139ba9061543e565b8015613a075780601f106139dc57610100808354040283529160200191613a07565b820191906000526020600020905b8154815290600101906020018083116139ea57829003601f168201915b50505091835250506001828101546001600160a01b0390811660208401526002840154908116604084015260ff600160a01b820481166060850152608090930192600160a81b9091041690811115613a6157613a61614be6565b6001811115613a7257613a72614be6565b815260029190910154600160b01b900460ff16151560209091015260a08101519094508015613abd57508580613abd5750600084608001516001811115613abb57613abb614be6565b145b15613aef5783838381518110613ad557613ad5615412565b60200260200101819052508180613aeb90615798565b9250505b80613af981615798565b91505061392f565b5090949350505050565b6060613b15614b57565b600c546000906001600160401b03811115613b3257613b32614ed5565b604051908082528060200260200182016040528015613b6b57816020015b613b58614b57565b815260200190600190039081613b505790505b5090506000805b600c54811015611fd657600b6000600c8381548110613b9357613b93615412565b60009182526020808320909101546001600160a01b039081168452838201949094526040928301909120825160e08101845281549094168452600181810154928501929092526002810154928401929092526003820154606084019160ff90911690811115613c0457613c04614be6565b6001811115613c1557613c15614be6565b81526020016003820160019054906101000a900460ff166001811115613c3d57613c3d614be6565b6001811115613c4e57613c4e614be6565b8152600382015462010000900460ff161515602080830191909152600483018054604080518285028101850182528281529401939260009084015b82821015613d35578382906000526020600020018054613ca89061543e565b80601f0160208091040260200160405190810160405280929190818152602001828054613cd49061543e565b8015613d215780601f10613cf657610100808354040283529160200191613d21565b820191906000526020600020905b815481529060010190602001808311613d0457829003601f168201915b505050505081526020019060010190613c89565b505050508152505093508360a0015115613d765783838381518110613d5c57613d5c615412565b60200260200101819052508180613d7290615798565b9250505b80613d8081615798565b915050613b72565b606060006002600401546001600160401b03811115613da957613da9614ed5565b604051908082528060200260200182016040528015613de257816020015b613dcf614ad8565b815260200190600190039081613dc75790505b509050613ded614ad8565b60065460009081908103613e075783945050505050611ae5565b6000879003613e195750600754613e2d565b506000868152600260205260409020600101545b600081815260026020818152604092839020835161020081018552815481526001820154928101929092528083015493820193909352600383015460608201526004830154608082015260058301546001600160a01b0390811660a083015260068401541660c0820152600783015460e082015260088301546101008201526009830154610120820152600a830154610140820152600b83015490929161016084019160ff1690811115613ee357613ee3614be6565b6002811115613ef457613ef4614be6565b8152602001600b820160019054906101000a900460ff166001811115613f1c57613f1c614be6565b6001811115613f2d57613f2d614be6565b8152600b82015462010000900460ff1615156020820152600c82018054604090920191613f599061543e565b80601f0160208091040260200160405190810160405280929190818152602001828054613f859061543e565b8015613fd25780601f10613fa757610100808354040283529160200191613fd2565b820191906000526020600020905b815481529060010190602001808311613fb557829003601f168201915b50505050508152602001600d82018054613feb9061543e565b80601f01602080910402602001604051908101604052809291908181526020018280546140179061543e565b80156140645780601f1061403957610100808354040283529160200191614064565b820191906000526020600020905b81548152906001019060200180831161404757829003601f168201915b50505050508152505092508284838061407c90615798565b94508151811061408e5761408e615412565b60200260200101819052508260200151905085821080156140ae57508015155b613e2d57509195945050505050565b336000908152600b602052604081206003015462010000900460ff16801561410b57506001336000908152600b602052604090206003015460ff16600181111561410957614109614be6565b145b80614125575060005461010090046001600160a01b031633145b6141415760405162461bcd60e51b81526004016104f090615321565b823b8061419e5760405162461bcd60e51b815260206004820152602560248201527f4c6120646972656363696f6e2064656c20636f6e747261746f20657320696e76604482015264616c69646160d81b60648201526084016104f0565b50813b806141be5760405162461bcd60e51b81526004016104f09061589f565b6001600160a01b0383166141e45760405162461bcd60e51b81526004016104f0906158e3565b60008490506000816001600160a01b03166395d89b416040518163ffffffff1660e01b8152600401600060405180830381865afa158015614229573d6000803e3d6000fd5b505050506040513d6000823e601f3d908101601f191682016040526142519190810190615d24565b905060088160405161426391906157b1565b9081526040519081900360200190206002015460ff600160b01b90910416156142e35760405162461bcd60e51b815260206004820152602c60248201527f456c20746f6b656e2079612065737461207265676973747261646f20656e206c60448201526b6120706c617461666f726d6160a01b60648201526084016104f0565b816001600160a01b03166395d89b416040518163ffffffff1660e01b8152600401600060405180830381865afa158015614321573d6000803e3d6000fd5b505050506040513d6000823e601f3d908101601f191682016040526143499190810190615d24565b60088260405161435991906157b1565b908152604051908190036020019020906143739082615b00565b50816001600160a01b031663313ce5676040518163ffffffff1660e01b8152600401602060405180830381865afa1580156143b2573d6000803e3d6000fd5b505050506040513d601f19601f820116820180604052508101906143d6919061587c565b6008826040516143e691906157b1565b908152602001604051809103902060020160146101000a81548160ff021916908360ff1602179055508560088260405161442091906157b1565b908152602001604051809103902060010160006101000a8154816001600160a01b0302191690836001600160a01b031602179055508460088260405161446691906157b1565b908152602001604051809103902060020160006101000a8154816001600160a01b0302191690836001600160a01b0316021790555060006008826040516144ad91906157b1565b908152604051908190036020019020600201805460ff60a81b1916600160a81b8360018111156144df576144df614be6565b021790555060016008826040516144f691906157b1565b9081526040519081900360200190206002018054911515600160b01b0260ff60b01b19909216919091179055600980546001810182556000919091527f6e1540171b6c0c960b71a7020d9f60077f6af931a8bbf590da0223dacf75c7af0161455e8282615b00565b50600a805490600061456f83615798565b91905055507f310b93709752db97b78cd7ee5de3909c4ed8540e51e1e7248020993a440041f26008826040516145a591906157b1565b9081526040519081900360200181206145bd91615d91565b60405180910390a150600195945050505050565b336000908152600b602052604081206003015462010000900460ff16801561461f57506001336000908152600b602052604090206003015460ff16600181111561461d5761461d614be6565b145b80614639575060005461010090046001600160a01b031633145b6146555760405162461bcd60e51b81526004016104f090615321565b6000905060088260405161466991906157b1565b9081526040519081900360200190206002015460ff600160b01b909104166146a35760405162461bcd60e51b81526004016104f0906157cd565b60006008836040516146b591906157b1565b908152604051908190036020019020600201805460ff60a81b1916600160a81b8360018111156146e7576146e7614be6565b0217905550600a80549060006146fc83615798565b9091555060019392505050565b614711614ad8565b60008486848660405160200161472a9493929190615bbf565b60408051601f19818403018152918152815160209283012060008181526004909352912080549192509060ff16156149a3576001808201546000908152600260208181526040928390208351610200810185528154815294810154918501919091528082015492840192909252600382015460608401526004820154608084015260058201546001600160a01b0390811660a085015260068301541660c0840152600782015460e084015260088201546101008401526009820154610120840152600a820154610140840152600b82015461016084019160ff9091169081111561481657614816614be6565b600281111561482757614827614be6565b8152602001600b820160019054906101000a900460ff16600181111561484f5761484f614be6565b600181111561486057614860614be6565b8152600b82015462010000900460ff1615156020820152600c8201805460409092019161488c9061543e565b80601f01602080910402602001604051908101604052809291908181526020018280546148b89061543e565b80156149055780601f106148da57610100808354040283529160200191614905565b820191906000526020600020905b8154815290600101906020018083116148e857829003601f168201915b50505050508152602001600d8201805461491e9061543e565b80601f016020809104026020016040519081016040528092919081815260200182805461494a9061543e565b80156149975780601f1061496c57610100808354040283529160200191614997565b820191906000526020600020905b81548152906001019060200180831161497a57829003601f168201915b50505050508152505092505b5050949350505050565b336000908152600b602052604081206003015462010000900460ff1680156149fb57506001336000908152600b602052604090206003015460ff1660018111156149f9576149f9614be6565b145b80614a15575060005461010090046001600160a01b031633145b614a315760405162461bcd60e51b81526004016104f090615321565b60009050600882604051614a4591906157b1565b9081526040519081900360200190206002015460ff600160b01b90910416614a7f5760405162461bcd60e51b81526004016104f0906157cd565b6001600883604051614a9191906157b1565b908152604051908190036020019020600201805460ff60a81b1916600160a81b836001811115614ac357614ac3614be6565b0217905550600a80549060006146fc8361550b565b6040805161020081018252600080825260208201819052918101829052606081018290526080810182905260a0810182905260c0810182905260e0810182905261010081018290526101208101829052610140810182905290610160820190815260200160008152600060208201526060604082018190529081015290565b6040805160e08101825260008082526020820181905291810182905290606082019081526020016000815260006020820152606060409091015290565b80356001600160a01b038116811461076157600080fd5b600060208284031215614bbd57600080fd5b614bc682614b94565b9392505050565b600060208284031215614bdf57600080fd5b5035919050565b634e487b7160e01b600052602160045260246000fd5b60038110614c0c57614c0c614be6565b9052565b60028110614c2057614c20614be6565b50565b614c0c81614c10565b60005b83811015614c47578181015183820152602001614c2f565b50506000910152565b60008151808452614c68816020860160208601614c2c565b601f01601f19169290920160200192915050565b6000610200825184526020830151602085015260408301516040850152606083015160608501526080830151608085015260a0830151614cc760a08601826001600160a01b03169052565b5060c0830151614ce260c08601826001600160a01b03169052565b5060e0838101519085015261010080840151908501526101208084015190850152610140808401519085015261016080840151614d2182870182614bfc565b505061018080840151614d3682870182614c23565b50506101a0838101511515908501526101c080840151818601839052614d5e83870182614c50565b925050506101e08084015185830382870152614d7a8382614c50565b9695505050505050565b602081526000614bc66020830184614c7c565b60008060408385031215614daa57600080fd5b50508035926020909101359150565b600081518084526020808501808196508360051b8101915082860160005b85811015614e01578284038952614def848351614c50565b98850198935090840190600101614dd7565b5091979650505050505050565b60006020808301818452808551808352604092508286019150828160051b87010184880160005b83811015614ec757888303603f19018552815180516001600160a01b031684528781015188850152868101518785015260608082015160e09190614e7881614c10565b90860152608082810151614e8b81614c10565b9086015260a08281015115159086015260c091820151918501819052614eb381860183614db9565b968901969450505090860190600101614e35565b509098975050505050505050565b634e487b7160e01b600052604160045260246000fd5b604051601f8201601f191681016001600160401b0381118282101715614f1357614f13614ed5565b604052919050565b60006001600160401b03821115614f3457614f34614ed5565b50601f01601f191660200190565b600082601f830112614f5357600080fd5b8135614f66614f6182614f1b565b614eeb565b818152846020838601011115614f7b57600080fd5b816020850160208301376000918101602001919091529392505050565b600060208284031215614faa57600080fd5b81356001600160401b03811115614fc057600080fd5b614fcc84828501614f42565b949350505050565b60008060408385031215614fe757600080fd5b82356001600160401b03811115614ffd57600080fd5b61500985828601614f42565b92505061501860208401614b94565b90509250929050565b600080600080600060a0868803121561503957600080fd5b85356001600160401b038082111561505057600080fd5b61505c89838a01614f42565b9650602088013591508082111561507257600080fd5b5061507f88828901614f42565b94505060408601359250606086013591506080860135600281106150a257600080fd5b809150509295509295909350565b8215158152604060208201526000614fcc6040830184614c7c565b60c0815260006150de60c0830189614c50565b6001600160a01b0388811660208501528716604084015260ff86166060840152905061510984614c10565b83608083015282151560a0830152979650505050505050565b6000602080830181845280855180835260408601915060408160051b870101925083870160005b8281101561517757603f19888603018452615165858351614c7c565b94509285019290850190600101615149565b5092979650505050505050565b8015158114614c2057600080fd5b6000602082840312156151a457600080fd5b8135614bc681615184565b60006020808301818452808551808352604092508286019150828160051b87010184880160005b83811015614ec757603f19898403018552815160c081518186526151fc82870182614c50565b838b01516001600160a01b03908116888d01528a850151168a88015260608085015160ff1690880152608080850151919350915061523981614c10565b9086015260a0918201511515919094015293860193908601906001016151d6565b6000806040838503121561526d57600080fd5b61527683614b94565b915061501860208401614b94565b6000806000806080858703121561529a57600080fd5b84356001600160401b03808211156152b157600080fd5b6152bd88838901614f42565b955060208701359150808211156152d357600080fd5b506152e087828801614f42565b949794965050505060408301359260600135919050565b6060810161530485614c10565b9381526001600160a01b0392909216602083015260409091015290565b60208082526023908201527f536f6c6f2070756564656e20616363656465722061646d696e6973747261646f60408201526272657360e81b606082015260800190565b60208082526018908201527f4c612062696c6c657465726120657320696e76616c6964610000000000000000604082015260600190565b6020808252602e908201527f4c6120646972656363696f6e206465206c612062696c6c6574657261206e6f2060408201526d707565646520736572206365726f60901b606082015260800190565b634e487b7160e01b600052601160045260246000fd5b81810381811115611ae557611ae56153e9565b634e487b7160e01b600052603260045260246000fd5b634e487b7160e01b600052603160045260246000fd5b600181811c9082168061545257607f821691505b60208210810361547257634e487b7160e01b600052602260045260246000fd5b50919050565b60008083546154868161543e565b6001828116801561549e57600181146154b3576154e2565b60ff19841687528215158302870194506154e2565b8760005260208060002060005b858110156154d95781548a8201529084019082016154c0565b50505082870194505b50929695505050505050565b60006020828403121561550057600080fd5b8151614bc681615184565b60008161551a5761551a6153e9565b506000190190565b6000815461552f8161543e565b80855260206001838116801561554c576001811461556657615594565b60ff1985168884015283151560051b880183019550615594565b866000528260002060005b8581101561558c5781548a8201860152908301908401615571565b890184019650505b505050505092915050565b6080815260006155b26080830187615522565b82810360208401526155c48187615522565b604084019590955250506060015292915050565b60208082526023908201527f4c6120706c617461666f726d6120736520656e6375656e74726120696e61637460408201526269766160e81b606082015260800190565b80820260008212600160ff1b84141615615637576156376153e9565b8181058314821517611ae557611ae56153e9565b634e487b7160e01b600052601260045260246000fd5b6000826156705761567061564b565b600160ff1b82146000198414161561568a5761568a6153e9565b500590565b6000602082840312156156a157600080fd5b5051919050565b60208082526028908201527f53616c646f20646520746f6b656e20696e737566696369656e746520706172616040820152671031b0b6b134b0b960c11b606082015260800190565b6020808252602b908201527f53616c646f206170726f6261646f20696e737566696369656e7465207061726160408201526a103a3930b739b332b934b960a91b606082015260800190565b6000600160ff1b8201615750576157506153e9565b5060000390565b60208082526021908201527f536f6c6f20656c2070726f706965746172696f207075656465206163636564656040820152603960f91b606082015260800190565b6000600182016157aa576157aa6153e9565b5060010190565b600082516157c3818460208701614c2c565b9190910192915050565b60208082526025908201527f456c20746f6b656e20696e6772657361646f206e6f2065737461207265676973604082015264747261646f60d81b606082015260800190565b805169ffffffffffffffffffff8116811461076157600080fd5b600080600080600060a0868803121561584457600080fd5b61584d86615812565b945060208601519350604086015192506060860151915061587060808701615812565b90509295509295909350565b60006020828403121561588e57600080fd5b815160ff81168114614bc657600080fd5b60208082526024908201527f4c6120646972656363696f6e2064656c206f726163756c6f20657320696e76616040820152636c69646160e01b606082015260800190565b6020808252602a908201527f4c6120646972656363696f6e2064656c206f726163756c6f206e6f20707565646040820152696520736572206365726f60b01b606082015260800190565b80820180821115611ae557611ae56153e9565b600181815b8085111561597b578160001904821115615961576159616153e9565b8085161561596e57918102915b93841c9390800290615945565b509250929050565b60008261599257506001611ae5565b8161599f57506000611ae5565b81600181146159b557600281146159bf576159db565b6001915050611ae5565b60ff8411156159d0576159d06153e9565b50506001821b611ae5565b5060208310610133831016604e8410600b84101617156159fe575081810a611ae5565b615a088383615940565b8060001904821115615a1c57615a1c6153e9565b029392505050565b6000614bc68383615983565b8082028115828204841417611ae557611ae56153e9565b600082615a5657615a5661564b565b500490565b60a081526000615a6e60a0830188614c50565b8281036020840152615a808188614c50565b915050615a8c85614c10565b604082019490945260608101929092526001600160a01b031660809091015292915050565b601f821115615afb57600081815260208120601f850160051c81016020861015615ad85750805b601f850160051c820191505b81811015615af757828155600101615ae4565b5050505b505050565b81516001600160401b03811115615b1957615b19614ed5565b615b2d81615b27845461543e565b84615ab1565b602080601f831160018114615b625760008415615b4a5750858301515b600019600386901b1c1916600185901b178555615af7565b600085815260208120601f198616915b82811015615b9157888601518255948401946001909101908401615b72565b5085821015615baf5787850151600019600388901b60f8161c191681555b5050505050600190811b01905550565b608081526000615bd26080830187614c50565b82810360208401526155c48187614c50565b6020815281546020820152600182015460408201526002820154606082015260038201546080820152600482015460a08201526000615c2d60058401546001600160a01b031690565b6001600160a01b0390811660c084015260068401541660e0830152600783015461010083015260088301546101208301526009830154610140830152600a830154610160830152600b830154615c8a610180840160ff8316614bfc565b615c9e6101a0840160ff8360081c16614c23565b615cb36101c0840160ff8360101c1615159052565b50610200806101e0840152615ccf6102208401600c8601615522565b838103601f190182850152615ce781600d8701615522565b95945050505050565b600082615cff57615cff61564b565b500790565b8181036000831280158383131683831282161715613871576138716153e9565b600060208284031215615d3657600080fd5b81516001600160401b03811115615d4c57600080fd5b8201601f81018413615d5d57600080fd5b8051615d6b614f6182614f1b565b818152856020838501011115615d8057600080fd5b615ce7826020830160208601614c2c565b6020815260c060208201526000615dab60e0830184615522565b60018401546001600160a01b0390811660408501526002850154908116606085015260ff60a082901c8116608086015260a882901c1690615deb82614c10565b60a085019190915260b01c60ff16151560c0909301929092525091905056fea2646970667358221220c2c82c76d59e045224ddb395d9113132681195aff6cb495c60396dd46f03b6aa64736f6c63430008110033",
  "linkReferences": {},
  "deployedLinkReferences": {}
}