{
  "_format": "hh-sol-artifact-1",
  "contractName": "GestorTokens",
  "sourceName": "contracts/GestorTokens.sol",
  "abi": [
    {
      "anonymous": false,
      "inputs": [
        {
          "components": [
            {
              "internalType": "bytes32",
              "name": "idOrden",
              "type": "bytes32"
            },
            {
              "internalType": "bytes32",
              "name": "siguienteOrdenActiva",
              "type": "bytes32"
            },
            {
              "internalType": "bytes32",
              "name": "anteriorOrdenActiva",
              "type": "bytes32"
            },
            {
              "internalType": "bytes32",
              "name": "siguienteOrdenGemela",
              "type": "bytes32"
            },
            {
              "internalType": "bytes32",
              "name": "anteriorOrdenGemela",
              "type": "bytes32"
            },
            {
              "internalType": "address",
              "name": "vendedor",
              "type": "address"
            },
            {
              "internalType": "address",
              "name": "comprador",
              "type": "address"
            },
            {
              "internalType": "uint256",
              "name": "montoVenta",
              "type": "uint256"
            },
            {
              "internalType": "uint256",
              "name": "montoCompra",
              "type": "uint256"
            },
            {
              "internalType": "uint256",
              "name": "fechaCreacion",
              "type": "uint256"
            },
            {
              "internalType": "uint256",
              "name": "fechaFinalizacion",
              "type": "uint256"
            },
            {
              "internalType": "enum Datos.EstadoOrden",
              "name": "estado",
              "type": "uint8"
            },
            {
              "internalType": "enum Datos.TipoOrden",
              "name": "tipo",
              "type": "uint8"
            },
            {
              "internalType": "bool",
              "name": "existe",
              "type": "bool"
            },
            {
              "internalType": "string",
              "name": "tokenCompra",
              "type": "string"
            },
            {
              "internalType": "string",
              "name": "tokenVenta",
              "type": "string"
            }
          ],
          "indexed": false,
          "internalType": "struct Datos.Orden",
          "name": "respuesta",
          "type": "tuple"
        }
      ],
      "name": "NuevaOrden",
      "type": "event"
    },
    {
      "anonymous": false,
      "inputs": [
        {
          "components": [
            {
              "internalType": "address",
              "name": "direccion",
              "type": "address"
            },
            {
              "internalType": "uint256",
              "name": "indiceAdmin",
              "type": "uint256"
            },
            {
              "internalType": "uint256",
              "name": "indiceBloqueado",
              "type": "uint256"
            },
            {
              "internalType": "enum Datos.RolBilletera",
              "name": "rol",
              "type": "uint8"
            },
            {
              "internalType": "enum Datos.EstadoGeneral",
              "name": "estado",
              "type": "uint8"
            },
            {
              "internalType": "bool",
              "name": "existe",
              "type": "bool"
            },
            {
              "internalType": "string[]",
              "name": "ordenes",
              "type": "string[]"
            }
          ],
          "indexed": false,
          "internalType": "struct Datos.Billetera",
          "name": "respuesta",
          "type": "tuple"
        }
      ],
      "name": "NuevoAdministrador",
      "type": "event"
    },
    {
      "anonymous": false,
      "inputs": [
        {
          "components": [
            {
              "internalType": "string",
              "name": "ticker",
              "type": "string"
            },
            {
              "internalType": "address",
              "name": "contrato",
              "type": "address"
            },
            {
              "internalType": "address",
              "name": "oraculo",
              "type": "address"
            },
            {
              "internalType": "uint8",
              "name": "decimales",
              "type": "uint8"
            },
            {
              "internalType": "enum Datos.EstadoGeneral",
              "name": "estado",
              "type": "uint8"
            },
            {
              "internalType": "bool",
              "name": "existe",
              "type": "bool"
            }
          ],
          "indexed": false,
          "internalType": "struct Datos.Token",
          "name": "respuesta",
          "type": "tuple"
        }
      ],
      "name": "NuevoToken",
      "type": "event"
    },
    {
      "inputs": [
        {
          "internalType": "string",
          "name": "_ticker",
          "type": "string"
        }
      ],
      "name": "activarToken",
      "outputs": [
        {
          "internalType": "bool",
          "name": "resultado",
          "type": "bool"
        }
      ],
      "stateMutability": "nonpayable",
      "type": "function"
    },
    {
      "inputs": [
        {
          "internalType": "string",
          "name": "_ticker",
          "type": "string"
        }
      ],
      "name": "consultarCotizacion",
      "outputs": [
        {
          "internalType": "int256",
          "name": "precio",
          "type": "int256"
        },
        {
          "internalType": "uint8",
          "name": "decimales",
          "type": "uint8"
        }
      ],
      "stateMutability": "view",
      "type": "function"
    },
    {
      "inputs": [
        {
          "internalType": "string",
          "name": "_string",
          "type": "string"
        }
      ],
      "name": "emptyString",
      "outputs": [
        {
          "internalType": "bool",
          "name": "",
          "type": "bool"
        }
      ],
      "stateMutability": "pure",
      "type": "function"
    },
    {
      "inputs": [
        {
          "internalType": "int256",
          "name": "number",
          "type": "int256"
        },
        {
          "internalType": "int256",
          "name": "exponent",
          "type": "int256"
        }
      ],
      "name": "expBySquaring",
      "outputs": [
        {
          "internalType": "int256",
          "name": "",
          "type": "int256"
        }
      ],
      "stateMutability": "pure",
      "type": "function"
    },
    {
      "inputs": [
        {
          "internalType": "bool",
          "name": "_incluirSuspendidos",
          "type": "bool"
        }
      ],
      "name": "listarTokens",
      "outputs": [
        {
          "components": [
            {
              "internalType": "string",
              "name": "ticker",
              "type": "string"
            },
            {
              "internalType": "address",
              "name": "contrato",
              "type": "address"
            },
            {
              "internalType": "address",
              "name": "oraculo",
              "type": "address"
            },
            {
              "internalType": "uint8",
              "name": "decimales",
              "type": "uint8"
            },
            {
              "internalType": "enum Datos.EstadoGeneral",
              "name": "estado",
              "type": "uint8"
            },
            {
              "internalType": "bool",
              "name": "existe",
              "type": "bool"
            }
          ],
          "internalType": "struct Datos.Token[]",
          "name": "",
          "type": "tuple[]"
        }
      ],
      "stateMutability": "view",
      "type": "function"
    },
    {
      "inputs": [
        {
          "internalType": "string",
          "name": "_ticker",
          "type": "string"
        },
        {
          "internalType": "address",
          "name": "_oraculo",
          "type": "address"
        }
      ],
      "name": "modifcarOraculo",
      "outputs": [
        {
          "internalType": "bool",
          "name": "resultado",
          "type": "bool"
        }
      ],
      "stateMutability": "nonpayable",
      "type": "function"
    },
    {
      "inputs": [
        {
          "internalType": "address",
          "name": "_contrato",
          "type": "address"
        },
        {
          "internalType": "address",
          "name": "_oraculo",
          "type": "address"
        }
      ],
      "name": "nuevoToken",
      "outputs": [
        {
          "internalType": "bool",
          "name": "",
          "type": "bool"
        }
      ],
      "stateMutability": "nonpayable",
      "type": "function"
    },
    {
      "inputs": [],
      "name": "ordenes",
      "outputs": [
        {
          "internalType": "uint256",
          "name": "cantidadTotal",
          "type": "uint256"
        },
        {
          "internalType": "uint256",
          "name": "cantidadActivas",
          "type": "uint256"
        },
        {
          "internalType": "bytes32",
          "name": "ultimaOrdenActiva",
          "type": "bytes32"
        }
      ],
      "stateMutability": "view",
      "type": "function"
    },
    {
      "inputs": [],
      "name": "plataforma",
      "outputs": [
        {
          "internalType": "enum Datos.EstadoGeneral",
          "name": "estado",
          "type": "uint8"
        },
        {
          "internalType": "address",
          "name": "propietario",
          "type": "address"
        },
        {
          "internalType": "uint256",
          "name": "montoMinimoUSD",
          "type": "uint256"
        }
      ],
      "stateMutability": "view",
      "type": "function"
    },
    {
      "inputs": [
        {
          "internalType": "int256",
          "name": "number",
          "type": "int256"
        },
        {
          "internalType": "int256",
          "name": "exponent",
          "type": "int256"
        }
      ],
      "name": "safeMulExp",
      "outputs": [
        {
          "internalType": "int256",
          "name": "",
          "type": "int256"
        }
      ],
      "stateMutability": "pure",
      "type": "function"
    },
    {
      "inputs": [
        {
          "internalType": "string",
          "name": "_ticker",
          "type": "string"
        }
      ],
      "name": "suspenderToken",
      "outputs": [
        {
          "internalType": "bool",
          "name": "resultado",
          "type": "bool"
        }
      ],
      "stateMutability": "nonpayable",
      "type": "function"
    },
    {
      "inputs": [
        {
          "internalType": "string",
          "name": "",
          "type": "string"
        }
      ],
      "name": "tokensRegistrados",
      "outputs": [
        {
          "internalType": "string",
          "name": "ticker",
          "type": "string"
        },
        {
          "internalType": "address",
          "name": "contrato",
          "type": "address"
        },
        {
          "internalType": "address",
          "name": "oraculo",
          "type": "address"
        },
        {
          "internalType": "uint8",
          "name": "decimales",
          "type": "uint8"
        },
        {
          "internalType": "enum Datos.EstadoGeneral",
          "name": "estado",
          "type": "uint8"
        },
        {
          "internalType": "bool",
          "name": "existe",
          "type": "bool"
        }
      ],
      "stateMutability": "view",
      "type": "function"
    }
  ],
  "bytecode": "0x608060405234801561001057600080fd5b50611a71806100206000396000f3fe608060405234801561001057600080fd5b50600436106100b45760003560e01c806398fd89b71161007157806398fd89b714610191578063c20fc17b146101a4578063dd47bdaf146101c4578063e6da48bd146101d7578063fb2f1a89146101ea578063fe5d590e1461021b57600080fd5b80633282ebc8146100b957806349668238146100df5780634bd368c81461010c57806351bd751f1461012f57806353493358146101595780637debf02a1461016c575b600080fd5b6100cc6100c736600461108e565b61022e565b6040519081526020015b60405180910390f35b6005546006546007546100f192919083565b604080519384526020840192909252908201526060016100d6565b61011f61011a366004611175565b511590565b60405190151581526020016100d6565b61014261013d366004611175565b610282565b6040805192835260ff9091166020830152016100d6565b61011f6101673660046111ce565b6103dd565b61017f61017a366004611175565b610541565b6040516100d6969594939291906112a4565b6100cc61019f36600461108e565b610623565b6101b76101b23660046112f9565b610683565b6040516100d69190611322565b61011f6101d23660046113df565b610917565b61011f6101e5366004611175565b610e2b565b60005460015461020c9160ff8116916101009091046001600160a01b03169083565b6040516100d693929190611409565b61011f610229366004611175565b610f63565b60008160000361023f57508161027c565b600082131561026457610253600a83610623565b61025d9084611447565b905061027c565b610272600a61019f84611477565b61025d90846114a9565b92915050565b60008060088360405161029591906114d7565b9081526040519081900360200190206002015460ff600160b01b909104166102d85760405162461bcd60e51b81526004016102cf906114f3565b60405180910390fd5b60006008846040516102ea91906114d7565b9081526040805191829003602001822060020154633fabe5a360e21b835290516001600160a01b039091169250829163feaf968c9160048083019260a09291908290030181865afa158015610343573d6000803e3d6000fd5b505050506040513d601f19601f820116820180604052508101906103679190611552565b50506040805163313ce56760e01b815290519296506001600160a01b038516935063313ce56792600480830193506020928290030181865afa1580156103b1573d6000803e3d6000fd5b505050506040513d601f19601f820116820180604052508101906103d591906115a2565b915050915091565b336000908152600b602052604081206003015462010000900460ff16801561042b57506001336000908152600b602052604090206003015460ff1660018111156104295761042961126c565b145b80610445575060005461010090046001600160a01b031633145b6104615760405162461bcd60e51b81526004016102cf906115c5565b6000905060088360405161047591906114d7565b9081526040519081900360200190206002015460ff600160b01b909104166104af5760405162461bcd60e51b81526004016102cf906114f3565b813b806104ce5760405162461bcd60e51b81526004016102cf90611608565b6001600160a01b0383166104f45760405162461bcd60e51b81526004016102cf9061164c565b8260088560405161050591906114d7565b90815260405190819003602001902060020180546001600160a01b03929092166001600160a01b03199092169190911790555060019392505050565b805160208183018101805160088252928201919093012091528054819061056790611696565b80601f016020809104026020016040519081016040528092919081815260200182805461059390611696565b80156105e05780601f106105b5576101008083540402835291602001916105e0565b820191906000526020600020905b8154815290600101906020018083116105c357829003601f168201915b505050600184015460029094015492936001600160a01b0390811693908116925060ff600160a01b820481169250600160a81b8204811691600160b01b90041686565b6000816000036106355750600161027c565b6106406002836116d0565b60000361065f5761025d6106548480611447565b61019f6002856114a9565b61025361066c8480611447565b60026106796001866116e4565b61019f91906114a9565b6040805160c08101825260608082526000602083018190529282018390528181018390526080820183905260a08201929092526000600a5467ffffffffffffffff8111156106d3576106d36110b0565b60405190808252806020026020018201604052801561073457816020015b6040805160c0810182526060808252600060208084018290529383018190529082018190526080820181905260a082015282526000199092019101816106f15790505b5090506000805b60095481101561090d5760086009828154811061075a5761075a61170b565b906000526020600020016040516107719190611721565b90815260200160405180910390206040518060c001604052908160008201805461079a90611696565b80601f01602080910402602001604051908101604052809291908181526020018280546107c690611696565b80156108135780601f106107e857610100808354040283529160200191610813565b820191906000526020600020905b8154815290600101906020018083116107f657829003601f168201915b50505091835250506001828101546001600160a01b0390811660208401526002840154908116604084015260ff600160a01b820481166060850152608090930192600160a81b909104169081111561086d5761086d61126c565b600181111561087e5761087e61126c565b815260029190910154600160b01b900460ff16151560209091015260a081015190945080156108c9575085806108c957506000846080015160018111156108c7576108c761126c565b145b156108fb57838383815181106108e1576108e161170b565b602002602001018190525081806108f790611797565b9250505b8061090581611797565b91505061073b565b5090949350505050565b336000908152600b602052604081206003015462010000900460ff16801561096557506001336000908152600b602052604090206003015460ff1660018111156109635761096361126c565b145b8061097f575060005461010090046001600160a01b031633145b61099b5760405162461bcd60e51b81526004016102cf906115c5565b823b806109f85760405162461bcd60e51b815260206004820152602560248201527f4c6120646972656363696f6e2064656c20636f6e747261746f20657320696e76604482015264616c69646160d81b60648201526084016102cf565b50813b80610a185760405162461bcd60e51b81526004016102cf90611608565b6001600160a01b038316610a3e5760405162461bcd60e51b81526004016102cf9061164c565b60008490506000816001600160a01b03166395d89b416040518163ffffffff1660e01b8152600401600060405180830381865afa158015610a83573d6000803e3d6000fd5b505050506040513d6000823e601f3d908101601f19168201604052610aab91908101906117b0565b9050600881604051610abd91906114d7565b9081526040519081900360200190206002015460ff600160b01b9091041615610b3d5760405162461bcd60e51b815260206004820152602c60248201527f456c20746f6b656e2079612065737461207265676973747261646f20656e206c60448201526b6120706c617461666f726d6160a01b60648201526084016102cf565b816001600160a01b03166395d89b416040518163ffffffff1660e01b8152600401600060405180830381865afa158015610b7b573d6000803e3d6000fd5b505050506040513d6000823e601f3d908101601f19168201604052610ba391908101906117b0565b600882604051610bb391906114d7565b90815260405190819003602001902090610bcd9082611876565b50816001600160a01b031663313ce5676040518163ffffffff1660e01b8152600401602060405180830381865afa158015610c0c573d6000803e3d6000fd5b505050506040513d601f19601f82011682018060405250810190610c3091906115a2565b600882604051610c4091906114d7565b908152602001604051809103902060020160146101000a81548160ff021916908360ff16021790555085600882604051610c7a91906114d7565b908152602001604051809103902060010160006101000a8154816001600160a01b0302191690836001600160a01b0316021790555084600882604051610cc091906114d7565b908152602001604051809103902060020160006101000a8154816001600160a01b0302191690836001600160a01b031602179055506000600882604051610d0791906114d7565b908152604051908190036020019020600201805460ff60a81b1916600160a81b836001811115610d3957610d3961126c565b02179055506001600882604051610d5091906114d7565b9081526040519081900360200190206002018054911515600160b01b0260ff60b01b19909216919091179055600980546001810182556000919091527f6e1540171b6c0c960b71a7020d9f60077f6af931a8bbf590da0223dacf75c7af01610db88282611876565b50600a8054906000610dc983611797565b91905055507f310b93709752db97b78cd7ee5de3909c4ed8540e51e1e7248020993a440041f2600882604051610dff91906114d7565b908152604051908190036020018120610e1791611936565b60405180910390a150600195945050505050565b336000908152600b602052604081206003015462010000900460ff168015610e7957506001336000908152600b602052604090206003015460ff166001811115610e7757610e7761126c565b145b80610e93575060005461010090046001600160a01b031633145b610eaf5760405162461bcd60e51b81526004016102cf906115c5565b60009050600882604051610ec391906114d7565b9081526040519081900360200190206002015460ff600160b01b90910416610efd5760405162461bcd60e51b81526004016102cf906114f3565b6000600883604051610f0f91906114d7565b908152604051908190036020019020600201805460ff60a81b1916600160a81b836001811115610f4157610f4161126c565b0217905550600a8054906000610f5683611797565b9091555060019392505050565b336000908152600b602052604081206003015462010000900460ff168015610fb157506001336000908152600b602052604090206003015460ff166001811115610faf57610faf61126c565b145b80610fcb575060005461010090046001600160a01b031633145b610fe75760405162461bcd60e51b81526004016102cf906115c5565b60009050600882604051610ffb91906114d7565b9081526040519081900360200190206002015460ff600160b01b909104166110355760405162461bcd60e51b81526004016102cf906114f3565b600160088360405161104791906114d7565b908152604051908190036020019020600201805460ff60a81b1916600160a81b8360018111156110795761107961126c565b0217905550600a8054906000610f5683611a24565b600080604083850312156110a157600080fd5b50508035926020909101359150565b634e487b7160e01b600052604160045260246000fd5b604051601f8201601f1916810167ffffffffffffffff811182821017156110ef576110ef6110b0565b604052919050565b600067ffffffffffffffff821115611111576111116110b0565b50601f01601f191660200190565b600082601f83011261113057600080fd5b813561114361113e826110f7565b6110c6565b81815284602083860101111561115857600080fd5b816020850160208301376000918101602001919091529392505050565b60006020828403121561118757600080fd5b813567ffffffffffffffff81111561119e57600080fd5b6111aa8482850161111f565b949350505050565b80356001600160a01b03811681146111c957600080fd5b919050565b600080604083850312156111e157600080fd5b823567ffffffffffffffff8111156111f857600080fd5b6112048582860161111f565b925050611213602084016111b2565b90509250929050565b60005b8381101561123757818101518382015260200161121f565b50506000910152565b6000815180845261125881602086016020860161121c565b601f01601f19169290920160200192915050565b634e487b7160e01b600052602160045260246000fd5b600281106112a057634e487b7160e01b600052602160045260246000fd5b9052565b60c0815260006112b760c0830189611240565b6001600160a01b0388811660208501528716604084015260ff8616606084015290506112e66080830185611282565b82151560a0830152979650505050505050565b60006020828403121561130b57600080fd5b8135801515811461131b57600080fd5b9392505050565b60006020808301818452808551808352604092508286019150828160051b87010184880160005b838110156113d157603f19898403018552815160c0815181865261136f82870182611240565b838b01516001600160a01b03908116888d01528a850151168a88015260608085015160ff169088015260808085015191935091506113af82880182611282565b505060a091820151151594909101939093529386019390860190600101611349565b509098975050505050505050565b600080604083850312156113f257600080fd5b6113fb836111b2565b9150611213602084016111b2565b606081016114178286611282565b6001600160a01b0393909316602082015260400152919050565b634e487b7160e01b600052601160045260246000fd5b80820260008212600160ff1b8414161561146357611463611431565b818105831482151761027c5761027c611431565b6000600160ff1b820161148c5761148c611431565b5060000390565b634e487b7160e01b600052601260045260246000fd5b6000826114b8576114b8611493565b600160ff1b8214600019841416156114d2576114d2611431565b500590565b600082516114e981846020870161121c565b9190910192915050565b60208082526025908201527f456c20746f6b656e20696e6772657361646f206e6f2065737461207265676973604082015264747261646f60d81b606082015260800190565b805169ffffffffffffffffffff811681146111c957600080fd5b600080600080600060a0868803121561156a57600080fd5b61157386611538565b945060208601519350604086015192506060860151915061159660808701611538565b90509295509295909350565b6000602082840312156115b457600080fd5b815160ff8116811461131b57600080fd5b60208082526023908201527f536f6c6f2070756564656e20616363656465722061646d696e6973747261646f60408201526272657360e81b606082015260800190565b60208082526024908201527f4c6120646972656363696f6e2064656c206f726163756c6f20657320696e76616040820152636c69646160e01b606082015260800190565b6020808252602a908201527f4c6120646972656363696f6e2064656c206f726163756c6f206e6f20707565646040820152696520736572206365726f60b01b606082015260800190565b600181811c908216806116aa57607f821691505b6020821081036116ca57634e487b7160e01b600052602260045260246000fd5b50919050565b6000826116df576116df611493565b500790565b818103600083128015838313168383128216171561170457611704611431565b5092915050565b634e487b7160e01b600052603260045260246000fd5b600080835461172f81611696565b60018281168015611747576001811461175c5761178b565b60ff198416875282151583028701945061178b565b8760005260208060002060005b858110156117825781548a820152908401908201611769565b50505082870194505b50929695505050505050565b6000600182016117a9576117a9611431565b5060010190565b6000602082840312156117c257600080fd5b815167ffffffffffffffff8111156117d957600080fd5b8201601f810184136117ea57600080fd5b80516117f861113e826110f7565b81815285602083850101111561180d57600080fd5b61181e82602083016020860161121c565b95945050505050565b601f82111561187157600081815260208120601f850160051c8101602086101561184e5750805b601f850160051c820191505b8181101561186d5782815560010161185a565b5050505b505050565b815167ffffffffffffffff811115611890576118906110b0565b6118a48161189e8454611696565b84611827565b602080601f8311600181146118d957600084156118c15750858301515b600019600386901b1c1916600185901b17855561186d565b600085815260208120601f198616915b82811015611908578886015182559484019460019091019084016118e9565b50858210156119265787850151600019600388901b60f8161c191681555b5050505050600190811b01905550565b6000602080835260c0818401526000845461195081611696565b8060e0870152610100600180841660008114611973576001811461198d576119bb565b60ff1985168984015283151560051b8901830195506119bb565b896000528660002060005b858110156119b35781548b8201860152908301908801611998565b8a0184019650505b508801546001600160a01b03166040880181905294506119da92505050565b60028501546001600160a01b0381166060860152915060a082901c60ff166080850152611a1060a0850160ff8460a81c16611282565b6111aa60c0850160ff8460b01c1615159052565b600081611a3357611a33611431565b50600019019056fea2646970667358221220cb86490b2eca2f1d0e5f71fb4e0b683b1862bb5e3782adc9726db8eae5b2b3ae64736f6c63430008110033",
  "linkReferences": {},
  "deployedLinkReferences": {}
}