{
  "_format": "hh-sol-artifact-1",
  "contractName": "GestorTokens",
  "sourceName": "contracts/GestorTokens.sol",
  "abi": [
    {
      "inputs": [
        {
          "internalType": "string",
          "name": "_ticker",
          "type": "string"
        }
      ],
      "name": "activarToken",
      "outputs": [
        {
          "internalType": "bool",
          "name": "resultado",
          "type": "bool"
        }
      ],
      "stateMutability": "nonpayable",
      "type": "function"
    },
    {
      "inputs": [],
      "name": "archivoOrdenes",
      "outputs": [
        {
          "internalType": "Datos.ContadorOrdenes",
          "name": "cantidadTotal",
          "type": "uint256"
        },
        {
          "internalType": "Datos.ContadorOrdenes",
          "name": "cantidadActivas",
          "type": "uint256"
        },
        {
          "internalType": "string",
          "name": "ultimaOrdenActiva",
          "type": "string"
        }
      ],
      "stateMutability": "view",
      "type": "function"
    },
    {
      "inputs": [
        {
          "internalType": "string",
          "name": "_ticker",
          "type": "string"
        }
      ],
      "name": "consultarCotizacion",
      "outputs": [
        {
          "internalType": "int256",
          "name": "precio",
          "type": "int256"
        }
      ],
      "stateMutability": "view",
      "type": "function"
    },
    {
      "inputs": [
        {
          "internalType": "string",
          "name": "_string",
          "type": "string"
        }
      ],
      "name": "emptyString",
      "outputs": [
        {
          "internalType": "bool",
          "name": "",
          "type": "bool"
        }
      ],
      "stateMutability": "pure",
      "type": "function"
    },
    {
      "inputs": [
        {
          "internalType": "bool",
          "name": "_incluirSuspendidos",
          "type": "bool"
        }
      ],
      "name": "listarTokens",
      "outputs": [
        {
          "components": [
            {
              "internalType": "string",
              "name": "ticker",
              "type": "string"
            },
            {
              "internalType": "address",
              "name": "contrato",
              "type": "address"
            },
            {
              "internalType": "address",
              "name": "oraculo",
              "type": "address"
            },
            {
              "internalType": "uint8",
              "name": "decimales",
              "type": "uint8"
            },
            {
              "internalType": "enum Datos.EstadoGeneral",
              "name": "estado",
              "type": "uint8"
            },
            {
              "internalType": "bool",
              "name": "existe",
              "type": "bool"
            }
          ],
          "internalType": "struct Datos.Token[]",
          "name": "",
          "type": "tuple[]"
        }
      ],
      "stateMutability": "view",
      "type": "function"
    },
    {
      "inputs": [
        {
          "internalType": "string",
          "name": "_ticker",
          "type": "string"
        },
        {
          "internalType": "address",
          "name": "_oraculo",
          "type": "address"
        }
      ],
      "name": "modifcarOraculo",
      "outputs": [
        {
          "internalType": "bool",
          "name": "resultado",
          "type": "bool"
        }
      ],
      "stateMutability": "nonpayable",
      "type": "function"
    },
    {
      "inputs": [
        {
          "internalType": "address",
          "name": "_contrato",
          "type": "address"
        },
        {
          "internalType": "address",
          "name": "_oraculo",
          "type": "address"
        }
      ],
      "name": "nuevoToken",
      "outputs": [
        {
          "internalType": "bool",
          "name": "",
          "type": "bool"
        }
      ],
      "stateMutability": "nonpayable",
      "type": "function"
    },
    {
      "inputs": [],
      "name": "plataforma",
      "outputs": [
        {
          "internalType": "enum Datos.EstadoGeneral",
          "name": "estado",
          "type": "uint8"
        },
        {
          "internalType": "address",
          "name": "propietario",
          "type": "address"
        },
        {
          "internalType": "uint256",
          "name": "montoMinimoUSD",
          "type": "uint256"
        }
      ],
      "stateMutability": "view",
      "type": "function"
    },
    {
      "inputs": [
        {
          "internalType": "string",
          "name": "_ticker",
          "type": "string"
        }
      ],
      "name": "suspenderToken",
      "outputs": [
        {
          "internalType": "bool",
          "name": "resultado",
          "type": "bool"
        }
      ],
      "stateMutability": "nonpayable",
      "type": "function"
    },
    {
      "inputs": [
        {
          "internalType": "string",
          "name": "",
          "type": "string"
        }
      ],
      "name": "tokensMap",
      "outputs": [
        {
          "internalType": "string",
          "name": "ticker",
          "type": "string"
        },
        {
          "internalType": "address",
          "name": "contrato",
          "type": "address"
        },
        {
          "internalType": "address",
          "name": "oraculo",
          "type": "address"
        },
        {
          "internalType": "uint8",
          "name": "decimales",
          "type": "uint8"
        },
        {
          "internalType": "enum Datos.EstadoGeneral",
          "name": "estado",
          "type": "uint8"
        },
        {
          "internalType": "bool",
          "name": "existe",
          "type": "bool"
        }
      ],
      "stateMutability": "view",
      "type": "function"
    }
  ],
  "bytecode": "0x608060405234801561001057600080fd5b506117c3806100206000396000f3fe608060405234801561001057600080fd5b506004361061009e5760003560e01c8063c20fc17b11610066578063c20fc17b1461013c578063dd47bdaf1461015c578063e6da48bd1461016f578063fb2f1a8914610182578063fe5d590e146101b357600080fd5b80634bd368c8146100a35780634e0d342a146100cc57806351bd751f146100f1578063534933581461011257806375d38fd714610125575b600080fd5b6100b76100b1366004611052565b51151590565b60405190151581526020015b60405180910390f35b6100df6100da366004611052565b6101c6565b6040516100c396959493929190611117565b6101046100ff366004611052565b6102a8565b6040519081526020016100c3565b6100b7610120366004611188565b6103a7565b61012d6104e9565b6040516100c3939291906111d6565b61014f61014a3660046111fe565b610583565b6040516100c39190611227565b6100b761016a3660046112e4565b610818565b6100b761017d366004611052565b610d63565b6000546001546101a49160ff8116916101009091046001600160a01b03169083565b6040516100c39392919061130e565b6100b76101c1366004611052565b610e64565b80516020818301810180516006825292820191909301209152805481906101ec90611336565b80601f016020809104026020016040519081016040528092919081815260200182805461021890611336565b80156102655780601f1061023a57610100808354040283529160200191610265565b820191906000526020600020905b81548152906001019060200180831161024857829003601f168201915b505050600184015460029094015492936001600160a01b0390811693908116925060ff600160a01b820481169250600160a81b8204811691600160b01b90041686565b60006006826040516102ba9190611370565b9081526040519081900360200190206002015460ff600160b01b909104166102fd5760405162461bcd60e51b81526004016102f49061138c565b60405180910390fd5b600060068360405161030f9190611370565b908152602001604051809103902060020160009054906101000a90046001600160a01b031690506000816001600160a01b031663feaf968c6040518163ffffffff1660e01b815260040160a060405180830381865afa158015610376573d6000803e3d6000fd5b505050506040513d601f19601f8201168201806040525081019061039a91906113eb565b5091979650505050505050565b600060013360009081526008602052604090206002015460ff1660018111156103d2576103d26110df565b14806103ed575060005461010090046001600160a01b031633145b6104095760405162461bcd60e51b81526004016102f49061143b565b6000905060068360405161041d9190611370565b9081526040519081900360200190206002015460ff600160b01b909104166104575760405162461bcd60e51b81526004016102f49061138c565b813b806104765760405162461bcd60e51b81526004016102f49061147e565b6001600160a01b03831661049c5760405162461bcd60e51b81526004016102f4906114c2565b826006856040516104ad9190611370565b90815260405190819003602001902060020180546001600160a01b03929092166001600160a01b03199092169190911790555060019392505050565b600354600454600580546002919061050090611336565b80601f016020809104026020016040519081016040528092919081815260200182805461052c90611336565b80156105795780601f1061054e57610100808354040283529160200191610579565b820191906000526020600020905b81548152906001019060200180831161055c57829003601f168201915b5050505050905083565b6040805160c08101825260608082526000602083018190529282018390528181018390526080820183905260a082019290925260075460009067ffffffffffffffff8111156105d4576105d4610f8d565b60405190808252806020026020018201604052801561063557816020015b6040805160c0810182526060808252600060208084018290529383018190529082018190526080820181905260a082015282526000199092019101816105f25790505b5090506000805b60075481101561080e5760066007828154811061065b5761065b61150c565b906000526020600020016040516106729190611522565b90815260200160405180910390206040518060c001604052908160008201805461069b90611336565b80601f01602080910402602001604051908101604052809291908181526020018280546106c790611336565b80156107145780601f106106e957610100808354040283529160200191610714565b820191906000526020600020905b8154815290600101906020018083116106f757829003601f168201915b50505091835250506001828101546001600160a01b0390811660208401526002840154908116604084015260ff600160a01b820481166060850152608090930192600160a81b909104169081111561076e5761076e6110df565b600181111561077f5761077f6110df565b815260029190910154600160b01b900460ff16151560209091015260a081015190945080156107ca575085806107ca57506000846080015160018111156107c8576107c86110df565b145b156107fc57838383815181106107e2576107e261150c565b602002602001018190525081806107f8906115ae565b9250505b80610806816115ae565b91505061063c565b5090949350505050565b600060013360009081526008602052604090206002015460ff166001811115610843576108436110df565b148061085e575060005461010090046001600160a01b031633145b61087a5760405162461bcd60e51b81526004016102f49061143b565b823b806108d75760405162461bcd60e51b815260206004820152602560248201527f4c6120646972656363696f6e2064656c20636f6e747261746f20657320696e76604482015264616c69646160d81b60648201526084016102f4565b50813b806108f75760405162461bcd60e51b81526004016102f49061147e565b6001600160a01b03831661091d5760405162461bcd60e51b81526004016102f4906114c2565b60008490506000816001600160a01b03166395d89b416040518163ffffffff1660e01b8152600401600060405180830381865afa158015610962573d6000803e3d6000fd5b505050506040513d6000823e601f3d908101601f1916820160405261098a91908101906115c7565b905060068160405161099c9190611370565b9081526040519081900360200190206002015460ff600160b01b9091041615610a1c5760405162461bcd60e51b815260206004820152602c60248201527f456c20746f6b656e2079612065737461207265676973747261646f20656e206c60448201526b6120706c617461666f726d6160a01b60648201526084016102f4565b816001600160a01b03166395d89b416040518163ffffffff1660e01b8152600401600060405180830381865afa158015610a5a573d6000803e3d6000fd5b505050506040513d6000823e601f3d908101601f19168201604052610a8291908101906115c7565b600682604051610a929190611370565b90815260405190819003602001902090610aac9082611684565b50816001600160a01b031663313ce5676040518163ffffffff1660e01b8152600401602060405180830381865afa158015610aeb573d6000803e3d6000fd5b505050506040513d601f19601f82011682018060405250810190610b0f9190611744565b600682604051610b1f9190611370565b908152602001604051809103902060020160146101000a81548160ff021916908360ff16021790555085600682604051610b599190611370565b908152602001604051809103902060010160006101000a8154816001600160a01b0302191690836001600160a01b0316021790555084600682604051610b9f9190611370565b908152602001604051809103902060020160006101000a8154816001600160a01b0302191690836001600160a01b031602179055506000600682604051610be69190611370565b908152604051908190036020019020600201805460ff60a81b1916600160a81b836001811115610c1857610c186110df565b02179055506001600682604051610c2f9190611370565b9081526040519081900360200190206002018054911515600160b01b0260ff60b01b19909216919091179055600780546001810182556000919091527fa66cc928b5edb82af9bd49922954155ab7b0942694bea4ce44661d9a8736c68801610c978282611684565b5060078054610d559190610cad90600190611767565b81548110610cbd57610cbd61150c565b906000526020600020018054610cd290611336565b80601f0160208091040260200160405190810160405280929190818152602001828054610cfe90611336565b8015610d4b5780601f10610d2057610100808354040283529160200191610d4b565b820191906000526020600020905b815481529060010190602001808311610d2e57829003601f168201915b5050505050610f26565b600193505050505b92915050565b600060013360009081526008602052604090206002015460ff166001811115610d8e57610d8e6110df565b1480610da9575060005461010090046001600160a01b031633145b610dc55760405162461bcd60e51b81526004016102f49061143b565b60009050600682604051610dd99190611370565b9081526040519081900360200190206002015460ff600160b01b90910416610e135760405162461bcd60e51b81526004016102f49061138c565b6000600683604051610e259190611370565b908152604051908190036020019020600201805460ff60a81b1916600160a81b836001811115610e5757610e576110df565b0217905550600192915050565b600060013360009081526008602052604090206002015460ff166001811115610e8f57610e8f6110df565b1480610eaa575060005461010090046001600160a01b031633145b610ec65760405162461bcd60e51b81526004016102f49061143b565b60009050600682604051610eda9190611370565b9081526040519081900360200190206002015460ff600160b01b90910416610f145760405162461bcd60e51b81526004016102f49061138c565b6001600683604051610e259190611370565b610f6981604051602401610f3a919061177a565b60408051601f198184030181529190526020810180516001600160e01b031663104c13eb60e21b179052610f6c565b50565b80516a636f6e736f6c652e6c6f67602083016000808483855afa5050505050565b634e487b7160e01b600052604160045260246000fd5b604051601f8201601f1916810167ffffffffffffffff81118282101715610fcc57610fcc610f8d565b604052919050565b600067ffffffffffffffff821115610fee57610fee610f8d565b50601f01601f191660200190565b600082601f83011261100d57600080fd5b813561102061101b82610fd4565b610fa3565b81815284602083860101111561103557600080fd5b816020850160208301376000918101602001919091529392505050565b60006020828403121561106457600080fd5b813567ffffffffffffffff81111561107b57600080fd5b61108784828501610ffc565b949350505050565b60005b838110156110aa578181015183820152602001611092565b50506000910152565b600081518084526110cb81602086016020860161108f565b601f01601f19169290920160200192915050565b634e487b7160e01b600052602160045260246000fd5b6002811061111357634e487b7160e01b600052602160045260246000fd5b9052565b60c08152600061112a60c08301896110b3565b6001600160a01b0388811660208501528716604084015260ff86166060840152905061115960808301856110f5565b82151560a0830152979650505050505050565b80356001600160a01b038116811461118357600080fd5b919050565b6000806040838503121561119b57600080fd5b823567ffffffffffffffff8111156111b257600080fd5b6111be85828601610ffc565b9250506111cd6020840161116c565b90509250929050565b8381528260208201526060604082015260006111f560608301846110b3565b95945050505050565b60006020828403121561121057600080fd5b8135801515811461122057600080fd5b9392505050565b60006020808301818452808551808352604092508286019150828160051b87010184880160005b838110156112d657603f19898403018552815160c08151818652611274828701826110b3565b838b01516001600160a01b03908116888d01528a850151168a88015260608085015160ff169088015260808085015191935091506112b4828801826110f5565b505060a09182015115159490910193909352938601939086019060010161124e565b509098975050505050505050565b600080604083850312156112f757600080fd5b6113008361116c565b91506111cd6020840161116c565b6060810161131c82866110f5565b6001600160a01b0393909316602082015260400152919050565b600181811c9082168061134a57607f821691505b60208210810361136a57634e487b7160e01b600052602260045260246000fd5b50919050565b6000825161138281846020870161108f565b9190910192915050565b60208082526025908201527f456c20746f6b656e20696e6772657361646f206e6f2065737461207265676973604082015264747261646f60d81b606082015260800190565b805169ffffffffffffffffffff8116811461118357600080fd5b600080600080600060a0868803121561140357600080fd5b61140c866113d1565b945060208601519350604086015192506060860151915061142f608087016113d1565b90509295509295909350565b60208082526023908201527f536f6c6f2070756564656e20616363656465722061646d696e6973747261646f60408201526272657360e81b606082015260800190565b60208082526024908201527f4c6120646972656363696f6e2064656c206f726163756c6f20657320696e76616040820152636c69646160e01b606082015260800190565b6020808252602a908201527f4c6120646972656363696f6e2064656c206f726163756c6f206e6f20707565646040820152696520736572206365726f60b01b606082015260800190565b634e487b7160e01b600052603260045260246000fd5b600080835461153081611336565b60018281168015611548576001811461155d5761158c565b60ff198416875282151583028701945061158c565b8760005260208060002060005b858110156115835781548a82015290840190820161156a565b50505082870194505b50929695505050505050565b634e487b7160e01b600052601160045260246000fd5b6000600182016115c0576115c0611598565b5060010190565b6000602082840312156115d957600080fd5b815167ffffffffffffffff8111156115f057600080fd5b8201601f8101841361160157600080fd5b805161160f61101b82610fd4565b81815285602083850101111561162457600080fd5b6111f582602083016020860161108f565b601f82111561167f57600081815260208120601f850160051c8101602086101561165c5750805b601f850160051c820191505b8181101561167b57828155600101611668565b5050505b505050565b815167ffffffffffffffff81111561169e5761169e610f8d565b6116b2816116ac8454611336565b84611635565b602080601f8311600181146116e757600084156116cf5750858301515b600019600386901b1c1916600185901b17855561167b565b600085815260208120601f198616915b82811015611716578886015182559484019460019091019084016116f7565b50858210156117345787850151600019600388901b60f8161c191681555b5050505050600190811b01905550565b60006020828403121561175657600080fd5b815160ff8116811461122057600080fd5b81810381811115610d5d57610d5d611598565b60208152600061122060208301846110b356fea2646970667358221220a52b5a01e9c2d7abac5574f7cc616da6685927b5f33bcdcf260a20c69403eeeb64736f6c63430008110033",
  "linkReferences": {},
  "deployedLinkReferences": {}
}