{
  "_format": "hh-sol-artifact-1",
  "contractName": "GestorTokens",
  "sourceName": "contracts/GestorTokens.sol",
  "abi": [
    {
      "anonymous": false,
      "inputs": [
        {
          "components": [
            {
              "internalType": "bytes32",
              "name": "idOrden",
              "type": "bytes32"
            },
            {
              "internalType": "bytes32",
              "name": "siguienteOrdenActiva",
              "type": "bytes32"
            },
            {
              "internalType": "bytes32",
              "name": "anteriorOrdenActiva",
              "type": "bytes32"
            },
            {
              "internalType": "bytes32",
              "name": "siguienteOrdenGemela",
              "type": "bytes32"
            },
            {
              "internalType": "bytes32",
              "name": "anteriorOrdenGemela",
              "type": "bytes32"
            },
            {
              "internalType": "address",
              "name": "vendedor",
              "type": "address"
            },
            {
              "internalType": "address",
              "name": "comprador",
              "type": "address"
            },
            {
              "internalType": "uint256",
              "name": "montoVenta",
              "type": "uint256"
            },
            {
              "internalType": "uint256",
              "name": "montoCompra",
              "type": "uint256"
            },
            {
              "internalType": "uint256",
              "name": "fechaCreacion",
              "type": "uint256"
            },
            {
              "internalType": "uint256",
              "name": "fechaFinalizacion",
              "type": "uint256"
            },
            {
              "internalType": "enum Datos.EstadoOrden",
              "name": "estado",
              "type": "uint8"
            },
            {
              "internalType": "enum Datos.TipoOrden",
              "name": "tipo",
              "type": "uint8"
            },
            {
              "internalType": "bool",
              "name": "existe",
              "type": "bool"
            },
            {
              "internalType": "string",
              "name": "tokenCompra",
              "type": "string"
            },
            {
              "internalType": "string",
              "name": "tokenVenta",
              "type": "string"
            }
          ],
          "indexed": false,
          "internalType": "struct Datos.Orden",
          "name": "respuesta",
          "type": "tuple"
        }
      ],
      "name": "NuevaOrden",
      "type": "event"
    },
    {
      "inputs": [
        {
          "internalType": "string",
          "name": "_ticker",
          "type": "string"
        }
      ],
      "name": "activarToken",
      "outputs": [
        {
          "internalType": "bool",
          "name": "resultado",
          "type": "bool"
        }
      ],
      "stateMutability": "nonpayable",
      "type": "function"
    },
    {
      "inputs": [
        {
          "internalType": "string",
          "name": "_ticker",
          "type": "string"
        }
      ],
      "name": "consultarCotizacion",
      "outputs": [
        {
          "internalType": "int256",
          "name": "precio",
          "type": "int256"
        }
      ],
      "stateMutability": "view",
      "type": "function"
    },
    {
      "inputs": [
        {
          "internalType": "string",
          "name": "_string",
          "type": "string"
        }
      ],
      "name": "emptyString",
      "outputs": [
        {
          "internalType": "bool",
          "name": "",
          "type": "bool"
        }
      ],
      "stateMutability": "pure",
      "type": "function"
    },
    {
      "inputs": [
        {
          "internalType": "bool",
          "name": "_incluirSuspendidos",
          "type": "bool"
        }
      ],
      "name": "listarTokens",
      "outputs": [
        {
          "components": [
            {
              "internalType": "string",
              "name": "ticker",
              "type": "string"
            },
            {
              "internalType": "address",
              "name": "contrato",
              "type": "address"
            },
            {
              "internalType": "address",
              "name": "oraculo",
              "type": "address"
            },
            {
              "internalType": "uint8",
              "name": "decimales",
              "type": "uint8"
            },
            {
              "internalType": "enum Datos.EstadoGeneral",
              "name": "estado",
              "type": "uint8"
            },
            {
              "internalType": "bool",
              "name": "existe",
              "type": "bool"
            }
          ],
          "internalType": "struct Datos.Token[]",
          "name": "",
          "type": "tuple[]"
        }
      ],
      "stateMutability": "view",
      "type": "function"
    },
    {
      "inputs": [
        {
          "internalType": "string",
          "name": "_ticker",
          "type": "string"
        },
        {
          "internalType": "address",
          "name": "_oraculo",
          "type": "address"
        }
      ],
      "name": "modifcarOraculo",
      "outputs": [
        {
          "internalType": "bool",
          "name": "resultado",
          "type": "bool"
        }
      ],
      "stateMutability": "nonpayable",
      "type": "function"
    },
    {
      "inputs": [
        {
          "internalType": "address",
          "name": "_contrato",
          "type": "address"
        },
        {
          "internalType": "address",
          "name": "_oraculo",
          "type": "address"
        }
      ],
      "name": "nuevoToken",
      "outputs": [
        {
          "internalType": "bool",
          "name": "",
          "type": "bool"
        }
      ],
      "stateMutability": "nonpayable",
      "type": "function"
    },
    {
      "inputs": [],
      "name": "ordenes",
      "outputs": [
        {
          "internalType": "uint256",
          "name": "cantidadTotal",
          "type": "uint256"
        },
        {
          "internalType": "uint256",
          "name": "cantidadActivas",
          "type": "uint256"
        },
        {
          "internalType": "bytes32",
          "name": "ultimaOrdenActiva",
          "type": "bytes32"
        }
      ],
      "stateMutability": "view",
      "type": "function"
    },
    {
      "inputs": [],
      "name": "plataforma",
      "outputs": [
        {
          "internalType": "enum Datos.EstadoGeneral",
          "name": "estado",
          "type": "uint8"
        },
        {
          "internalType": "address",
          "name": "propietario",
          "type": "address"
        },
        {
          "internalType": "uint256",
          "name": "montoMinimoUSD",
          "type": "uint256"
        }
      ],
      "stateMutability": "view",
      "type": "function"
    },
    {
      "inputs": [
        {
          "internalType": "string",
          "name": "_ticker",
          "type": "string"
        }
      ],
      "name": "suspenderToken",
      "outputs": [
        {
          "internalType": "bool",
          "name": "resultado",
          "type": "bool"
        }
      ],
      "stateMutability": "nonpayable",
      "type": "function"
    },
    {
      "inputs": [
        {
          "internalType": "string",
          "name": "",
          "type": "string"
        }
      ],
      "name": "tokensRegistrados",
      "outputs": [
        {
          "internalType": "string",
          "name": "ticker",
          "type": "string"
        },
        {
          "internalType": "address",
          "name": "contrato",
          "type": "address"
        },
        {
          "internalType": "address",
          "name": "oraculo",
          "type": "address"
        },
        {
          "internalType": "uint8",
          "name": "decimales",
          "type": "uint8"
        },
        {
          "internalType": "enum Datos.EstadoGeneral",
          "name": "estado",
          "type": "uint8"
        },
        {
          "internalType": "bool",
          "name": "existe",
          "type": "bool"
        }
      ],
      "stateMutability": "view",
      "type": "function"
    }
  ],
  "bytecode": "0x608060405234801561001057600080fd5b50611653806100206000396000f3fe608060405234801561001057600080fd5b506004361061009e5760003560e01c8063c20fc17b11610066578063c20fc17b14610151578063dd47bdaf14610171578063e6da48bd14610184578063fb2f1a8914610197578063fe5d590e146101c857600080fd5b806349668238146100a35780634bd368c8146100d557806351bd751f146100f857806353493358146101195780637debf02a1461012c575b600080fd5b6005546006546007546100b592919083565b604080519384526020840192909252908201526060015b60405180910390f35b6100e86100e3366004610f2f565b511590565b60405190151581526020016100cc565b61010b610106366004610f2f565b6101db565b6040519081526020016100cc565b6100e8610127366004610f88565b6102da565b61013f61013a366004610f2f565b61043e565b6040516100cc9695949392919061105e565b61016461015f3660046110b3565b610520565b6040516100cc91906110dc565b6100e861017f366004611199565b6107b5565b6100e8610192366004610f2f565b610c63565b6000546001546101b99160ff8116916101009091046001600160a01b03169083565b6040516100cc939291906111c3565b6100e86101d6366004610f2f565b610d86565b60006008826040516101ed91906111eb565b9081526040519081900360200190206002015460ff600160b01b909104166102305760405162461bcd60e51b815260040161022790611207565b60405180910390fd5b600060088360405161024291906111eb565b908152602001604051809103902060020160009054906101000a90046001600160a01b031690506000816001600160a01b031663feaf968c6040518163ffffffff1660e01b815260040160a060405180830381865afa1580156102a9573d6000803e3d6000fd5b505050506040513d601f19601f820116820180604052508101906102cd9190611266565b5091979650505050505050565b336000908152600a602052604081206003015462010000900460ff16801561032857506001336000908152600a602052604090206003015460ff16600181111561032657610326611026565b145b80610342575060005461010090046001600160a01b031633145b61035e5760405162461bcd60e51b8152600401610227906112b6565b6000905060088360405161037291906111eb565b9081526040519081900360200190206002015460ff600160b01b909104166103ac5760405162461bcd60e51b815260040161022790611207565b813b806103cb5760405162461bcd60e51b8152600401610227906112f9565b6001600160a01b0383166103f15760405162461bcd60e51b81526004016102279061133d565b8260088560405161040291906111eb565b90815260405190819003602001902060020180546001600160a01b03929092166001600160a01b03199092169190911790555060019392505050565b805160208183018101805160088252928201919093012091528054819061046490611387565b80601f016020809104026020016040519081016040528092919081815260200182805461049090611387565b80156104dd5780601f106104b2576101008083540402835291602001916104dd565b820191906000526020600020905b8154815290600101906020018083116104c057829003601f168201915b505050600184015460029094015492936001600160a01b0390811693908116925060ff600160a01b820481169250600160a81b8204811691600160b01b90041686565b6040805160c08101825260608082526000602083018190529282018390528181018390526080820183905260a082019290925260095460009067ffffffffffffffff81111561057157610571610e6a565b6040519080825280602002602001820160405280156105d257816020015b6040805160c0810182526060808252600060208084018290529383018190529082018190526080820181905260a0820152825260001990920191018161058f5790505b5090506000805b6009548110156107ab576008600982815481106105f8576105f86113c1565b9060005260206000200160405161060f91906113d7565b90815260200160405180910390206040518060c001604052908160008201805461063890611387565b80601f016020809104026020016040519081016040528092919081815260200182805461066490611387565b80156106b15780601f10610686576101008083540402835291602001916106b1565b820191906000526020600020905b81548152906001019060200180831161069457829003601f168201915b50505091835250506001828101546001600160a01b0390811660208401526002840154908116604084015260ff600160a01b820481166060850152608090930192600160a81b909104169081111561070b5761070b611026565b600181111561071c5761071c611026565b815260029190910154600160b01b900460ff16151560209091015260a0810151909450801561076757508580610767575060008460800151600181111561076557610765611026565b145b15610799578383838151811061077f5761077f6113c1565b602002602001018190525081806107959061144d565b9250505b806107a38161144d565b9150506105d9565b5090949350505050565b336000908152600a602052604081206003015462010000900460ff16801561080357506001336000908152600a602052604090206003015460ff16600181111561080157610801611026565b145b8061081d575060005461010090046001600160a01b031633145b6108395760405162461bcd60e51b8152600401610227906112b6565b823b806108965760405162461bcd60e51b815260206004820152602560248201527f4c6120646972656363696f6e2064656c20636f6e747261746f20657320696e76604482015264616c69646160d81b6064820152608401610227565b50813b806108b65760405162461bcd60e51b8152600401610227906112f9565b6001600160a01b0383166108dc5760405162461bcd60e51b81526004016102279061133d565b60008490506000816001600160a01b03166395d89b416040518163ffffffff1660e01b8152600401600060405180830381865afa158015610921573d6000803e3d6000fd5b505050506040513d6000823e601f3d908101601f191682016040526109499190810190611474565b905060088160405161095b91906111eb565b9081526040519081900360200190206002015460ff600160b01b90910416156109db5760405162461bcd60e51b815260206004820152602c60248201527f456c20746f6b656e2079612065737461207265676973747261646f20656e206c60448201526b6120706c617461666f726d6160a01b6064820152608401610227565b816001600160a01b03166395d89b416040518163ffffffff1660e01b8152600401600060405180830381865afa158015610a19573d6000803e3d6000fd5b505050506040513d6000823e601f3d908101601f19168201604052610a419190810190611474565b600882604051610a5191906111eb565b90815260405190819003602001902090610a6b908261153a565b50816001600160a01b031663313ce5676040518163ffffffff1660e01b8152600401602060405180830381865afa158015610aaa573d6000803e3d6000fd5b505050506040513d601f19601f82011682018060405250810190610ace91906115fa565b600882604051610ade91906111eb565b908152602001604051809103902060020160146101000a81548160ff021916908360ff16021790555085600882604051610b1891906111eb565b908152602001604051809103902060010160006101000a8154816001600160a01b0302191690836001600160a01b0316021790555084600882604051610b5e91906111eb565b908152602001604051809103902060020160006101000a8154816001600160a01b0302191690836001600160a01b031602179055506000600882604051610ba591906111eb565b908152604051908190036020019020600201805460ff60a81b1916600160a81b836001811115610bd757610bd7611026565b02179055506001600882604051610bee91906111eb565b9081526040519081900360200190206002018054911515600160b01b0260ff60b01b19909216919091179055600980546001810182556000919091527f6e1540171b6c0c960b71a7020d9f60077f6af931a8bbf590da0223dacf75c7af01610c56828261153a565b5060019695505050505050565b336000908152600a602052604081206003015462010000900460ff168015610cb157506001336000908152600a602052604090206003015460ff166001811115610caf57610caf611026565b145b80610ccb575060005461010090046001600160a01b031633145b610ce75760405162461bcd60e51b8152600401610227906112b6565b60009050600882604051610cfb91906111eb565b9081526040519081900360200190206002015460ff600160b01b90910416610d355760405162461bcd60e51b815260040161022790611207565b6000600883604051610d4791906111eb565b908152604051908190036020019020600201805460ff60a81b1916600160a81b836001811115610d7957610d79611026565b0217905550600192915050565b336000908152600a602052604081206003015462010000900460ff168015610dd457506001336000908152600a602052604090206003015460ff166001811115610dd257610dd2611026565b145b80610dee575060005461010090046001600160a01b031633145b610e0a5760405162461bcd60e51b8152600401610227906112b6565b60009050600882604051610e1e91906111eb565b9081526040519081900360200190206002015460ff600160b01b90910416610e585760405162461bcd60e51b815260040161022790611207565b6001600883604051610d4791906111eb565b634e487b7160e01b600052604160045260246000fd5b604051601f8201601f1916810167ffffffffffffffff81118282101715610ea957610ea9610e6a565b604052919050565b600067ffffffffffffffff821115610ecb57610ecb610e6a565b50601f01601f191660200190565b600082601f830112610eea57600080fd5b8135610efd610ef882610eb1565b610e80565b818152846020838601011115610f1257600080fd5b816020850160208301376000918101602001919091529392505050565b600060208284031215610f4157600080fd5b813567ffffffffffffffff811115610f5857600080fd5b610f6484828501610ed9565b949350505050565b80356001600160a01b0381168114610f8357600080fd5b919050565b60008060408385031215610f9b57600080fd5b823567ffffffffffffffff811115610fb257600080fd5b610fbe85828601610ed9565b925050610fcd60208401610f6c565b90509250929050565b60005b83811015610ff1578181015183820152602001610fd9565b50506000910152565b60008151808452611012816020860160208601610fd6565b601f01601f19169290920160200192915050565b634e487b7160e01b600052602160045260246000fd5b6002811061105a57634e487b7160e01b600052602160045260246000fd5b9052565b60c08152600061107160c0830189610ffa565b6001600160a01b0388811660208501528716604084015260ff8616606084015290506110a0608083018561103c565b82151560a0830152979650505050505050565b6000602082840312156110c557600080fd5b813580151581146110d557600080fd5b9392505050565b60006020808301818452808551808352604092508286019150828160051b87010184880160005b8381101561118b57603f19898403018552815160c0815181865261112982870182610ffa565b838b01516001600160a01b03908116888d01528a850151168a88015260608085015160ff169088015260808085015191935091506111698288018261103c565b505060a091820151151594909101939093529386019390860190600101611103565b509098975050505050505050565b600080604083850312156111ac57600080fd5b6111b583610f6c565b9150610fcd60208401610f6c565b606081016111d1828661103c565b6001600160a01b0393909316602082015260400152919050565b600082516111fd818460208701610fd6565b9190910192915050565b60208082526025908201527f456c20746f6b656e20696e6772657361646f206e6f2065737461207265676973604082015264747261646f60d81b606082015260800190565b805169ffffffffffffffffffff81168114610f8357600080fd5b600080600080600060a0868803121561127e57600080fd5b6112878661124c565b94506020860151935060408601519250606086015191506112aa6080870161124c565b90509295509295909350565b60208082526023908201527f536f6c6f2070756564656e20616363656465722061646d696e6973747261646f60408201526272657360e81b606082015260800190565b60208082526024908201527f4c6120646972656363696f6e2064656c206f726163756c6f20657320696e76616040820152636c69646160e01b606082015260800190565b6020808252602a908201527f4c6120646972656363696f6e2064656c206f726163756c6f206e6f20707565646040820152696520736572206365726f60b01b606082015260800190565b600181811c9082168061139b57607f821691505b6020821081036113bb57634e487b7160e01b600052602260045260246000fd5b50919050565b634e487b7160e01b600052603260045260246000fd5b60008083546113e581611387565b600182811680156113fd576001811461141257611441565b60ff1984168752821515830287019450611441565b8760005260208060002060005b858110156114385781548a82015290840190820161141f565b50505082870194505b50929695505050505050565b60006001820161146d57634e487b7160e01b600052601160045260246000fd5b5060010190565b60006020828403121561148657600080fd5b815167ffffffffffffffff81111561149d57600080fd5b8201601f810184136114ae57600080fd5b80516114bc610ef882610eb1565b8181528560208385010111156114d157600080fd5b6114e2826020830160208601610fd6565b95945050505050565b601f82111561153557600081815260208120601f850160051c810160208610156115125750805b601f850160051c820191505b818110156115315782815560010161151e565b5050505b505050565b815167ffffffffffffffff81111561155457611554610e6a565b611568816115628454611387565b846114eb565b602080601f83116001811461159d57600084156115855750858301515b600019600386901b1c1916600185901b178555611531565b600085815260208120601f198616915b828110156115cc578886015182559484019460019091019084016115ad565b50858210156115ea5787850151600019600388901b60f8161c191681555b5050505050600190811b01905550565b60006020828403121561160c57600080fd5b815160ff811681146110d557600080fdfea264697066735822122032650e0af588f9fbaf5f025c4e397116a8f27449456ab98d660712f874fd12fb64736f6c63430008110033",
  "linkReferences": {},
  "deployedLinkReferences": {}
}