{
  "_format": "hh-sol-artifact-1",
  "contractName": "GestorTokens",
  "sourceName": "contracts/GestorTokens.sol",
  "abi": [
    {
      "inputs": [],
      "name": "archivoOrdenes",
      "outputs": [
        {
          "internalType": "Datos.ContadorOrdenes",
          "name": "cantidadTotal",
          "type": "uint256"
        },
        {
          "internalType": "Datos.ContadorOrdenes",
          "name": "cantidadActivas",
          "type": "uint256"
        },
        {
          "internalType": "string",
          "name": "ultimaOrdenActiva",
          "type": "string"
        }
      ],
      "stateMutability": "view",
      "type": "function"
    },
    {
      "inputs": [
        {
          "internalType": "string",
          "name": "_ticker",
          "type": "string"
        },
        {
          "internalType": "bool",
          "name": "_soloActivos",
          "type": "bool"
        }
      ],
      "name": "buscarTokens",
      "outputs": [
        {
          "components": [
            {
              "internalType": "string",
              "name": "ticker",
              "type": "string"
            },
            {
              "internalType": "address",
              "name": "contrato",
              "type": "address"
            },
            {
              "internalType": "address",
              "name": "oraculo",
              "type": "address"
            },
            {
              "internalType": "uint8",
              "name": "decimales",
              "type": "uint8"
            },
            {
              "internalType": "enum Datos.EstadoGeneral",
              "name": "estado",
              "type": "uint8"
            },
            {
              "internalType": "bool",
              "name": "existe",
              "type": "bool"
            }
          ],
          "internalType": "struct Datos.Token[]",
          "name": "resultado",
          "type": "tuple[]"
        }
      ],
      "stateMutability": "view",
      "type": "function"
    },
    {
      "inputs": [
        {
          "internalType": "string",
          "name": "_ticker",
          "type": "string"
        }
      ],
      "name": "consultarCotizacion",
      "outputs": [
        {
          "internalType": "int256",
          "name": "precio",
          "type": "int256"
        }
      ],
      "stateMutability": "view",
      "type": "function"
    },
    {
      "inputs": [
        {
          "internalType": "string",
          "name": "_string",
          "type": "string"
        }
      ],
      "name": "emptyString",
      "outputs": [
        {
          "internalType": "bool",
          "name": "",
          "type": "bool"
        }
      ],
      "stateMutability": "pure",
      "type": "function"
    },
    {
      "inputs": [
        {
          "internalType": "address",
          "name": "_contrato",
          "type": "address"
        },
        {
          "internalType": "address",
          "name": "_oraculo",
          "type": "address"
        }
      ],
      "name": "nuevoToken",
      "outputs": [
        {
          "internalType": "bool",
          "name": "",
          "type": "bool"
        }
      ],
      "stateMutability": "nonpayable",
      "type": "function"
    },
    {
      "inputs": [],
      "name": "plataforma",
      "outputs": [
        {
          "internalType": "enum Datos.EstadoGeneral",
          "name": "estado",
          "type": "uint8"
        },
        {
          "internalType": "address",
          "name": "propietario",
          "type": "address"
        },
        {
          "internalType": "uint256",
          "name": "montoMinimoUSD",
          "type": "uint256"
        }
      ],
      "stateMutability": "view",
      "type": "function"
    },
    {
      "inputs": [
        {
          "internalType": "string",
          "name": "",
          "type": "string"
        }
      ],
      "name": "tokensMap",
      "outputs": [
        {
          "internalType": "string",
          "name": "ticker",
          "type": "string"
        },
        {
          "internalType": "address",
          "name": "contrato",
          "type": "address"
        },
        {
          "internalType": "address",
          "name": "oraculo",
          "type": "address"
        },
        {
          "internalType": "uint8",
          "name": "decimales",
          "type": "uint8"
        },
        {
          "internalType": "enum Datos.EstadoGeneral",
          "name": "estado",
          "type": "uint8"
        },
        {
          "internalType": "bool",
          "name": "existe",
          "type": "bool"
        }
      ],
      "stateMutability": "view",
      "type": "function"
    }
  ],
  "bytecode": "0x608060405234801561001057600080fd5b50611390806100206000396000f3fe608060405234801561001057600080fd5b506004361061007d5760003560e01c806375d38fd71161005b57806375d38fd7146100f1578063dd47bdaf14610108578063eea3640d1461011b578063fb2f1a891461013b57600080fd5b80634bd368c8146100825780634e0d342a146100ab57806351bd751f146100d0575b600080fd5b610096610090366004610d73565b51151590565b60405190151581526020015b60405180910390f35b6100be6100b9366004610d73565b61016c565b6040516100a296959493929190610e38565b6100e36100de366004610d73565b61024e565b6040519081526020016100a2565b6100f9610387565b6040516100a293929190610e8d565b610096610116366004610ed1565b610421565b61012e610129366004610f04565b61090c565b6040516100a29190610f5b565b60005460015461015d9160ff8116916101009091046001600160a01b03169083565b6040516100a293929190611018565b805160208183018101805160068252928201919093012091528054819061019290611040565b80601f01602080910402602001604051908101604052809291908181526020018280546101be90611040565b801561020b5780601f106101e05761010080835404028352916020019161020b565b820191906000526020600020905b8154815290600101906020018083116101ee57829003601f168201915b505050600184015460029094015492936001600160a01b0390811693908116925060ff600160a01b820481169250600160a81b8204811691600160b01b90041686565b6000600682604051610260919061107a565b9081526040519081900360200190206002015460ff600160b01b909104166102dd5760405162461bcd60e51b815260206004820152602560248201527f456c20746f6b656e20696e6772657361646f206e6f2065737461207265676973604482015264747261646f60d81b60648201526084015b60405180910390fd5b60006006836040516102ef919061107a565b908152602001604051809103902060020160009054906101000a90046001600160a01b031690506000816001600160a01b031663feaf968c6040518163ffffffff1660e01b815260040160a060405180830381865afa158015610356573d6000803e3d6000fd5b505050506040513d601f19601f8201168201806040525081019061037a91906110b0565b5091979650505050505050565b600354600454600580546002919061039e90611040565b80601f01602080910402602001604051908101604052809291908181526020018280546103ca90611040565b80156104175780601f106103ec57610100808354040283529160200191610417565b820191906000526020600020905b8154815290600101906020018083116103fa57829003601f168201915b5050505050905083565b600060013360009081526008602052604090206002015460ff16600181111561044c5761044c610e00565b1480610467575060005461010090046001600160a01b031633145b6104bf5760405162461bcd60e51b815260206004820152602360248201527f536f6c6f2070756564656e20616363656465722061646d696e6973747261646f60448201526272657360e81b60648201526084016102d4565b823b8061051c5760405162461bcd60e51b815260206004820152602560248201527f4c6120646972656363696f6e2064656c20636f6e747261746f20657320696e76604482015264616c69646160d81b60648201526084016102d4565b6001600160a01b0383166105855760405162461bcd60e51b815260206004820152602a60248201527f4c6120646972656363696f6e2064656c206f726163756c6f206e6f20707565646044820152696520736572206365726f60b01b60648201526084016102d4565b60008490506000816001600160a01b03166395d89b416040518163ffffffff1660e01b8152600401600060405180830381865afa1580156105ca573d6000803e3d6000fd5b505050506040513d6000823e601f3d908101601f191682016040526105f29190810190611100565b9050600681604051610604919061107a565b9081526040519081900360200190206002015460ff600160b01b90910416156106845760405162461bcd60e51b815260206004820152602c60248201527f456c20746f6b656e2079612065737461207265676973747261646f20656e206c60448201526b6120706c617461666f726d6160a01b60648201526084016102d4565b816001600160a01b03166395d89b416040518163ffffffff1660e01b8152600401600060405180830381865afa1580156106c2573d6000803e3d6000fd5b505050506040513d6000823e601f3d908101601f191682016040526106ea9190810190611100565b6006826040516106fa919061107a565b9081526040519081900360200190209061071490826111bd565b50816001600160a01b031663313ce5676040518163ffffffff1660e01b8152600401602060405180830381865afa158015610753573d6000803e3d6000fd5b505050506040513d601f19601f82011682018060405250810190610777919061127d565b600682604051610787919061107a565b908152602001604051809103902060020160146101000a81548160ff021916908360ff160217905550856006826040516107c1919061107a565b908152602001604051809103902060010160006101000a8154816001600160a01b0302191690836001600160a01b0316021790555084600682604051610807919061107a565b908152602001604051809103902060020160006101000a8154816001600160a01b0302191690836001600160a01b03160217905550600060068260405161084e919061107a565b908152604051908190036020019020600201805460ff60a81b1916600160a81b83600181111561088057610880610e00565b02179055506001600682604051610897919061107a565b9081526040519081900360200190206002018054911515600160b01b0260ff60b01b19909216919091179055600780546001810182556000919091527fa66cc928b5edb82af9bd49922954155ab7b0942694bea4ce44661d9a8736c688016108ff82826111bd565b5060019695505050505050565b6040805160c08101825260608082526000602083018190529282018390528181018390526080820183905260a08201929092528351610aea57600684604051610955919061107a565b90815260200160405180910390206040518060c001604052908160008201805461097e90611040565b80601f01602080910402602001604051908101604052809291908181526020018280546109aa90611040565b80156109f75780601f106109cc576101008083540402835291602001916109f7565b820191906000526020600020905b8154815290600101906020018083116109da57829003601f168201915b50505091835250506001828101546001600160a01b0390811660208401526002840154908116604084015260ff600160a01b820481166060850152608090930192600160a81b9091041690811115610a5157610a51610e00565b6001811115610a6257610a62610e00565b815260029190910154600160b01b900460ff16151560209091015260a0810151909150610ac65760405162461bcd60e51b8152602060048201526012602482015271456c20746f6b656e206e6f2065786973746560701b60448201526064016102d4565b8082600081518110610ada57610ada6112a7565b6020026020010181905250610ca7565b60005b600754811015610ca557600660078281548110610b0c57610b0c6112a7565b90600052602060002001604051610b2391906112bd565b90815260200160405180910390206040518060c0016040529081600082018054610b4c90611040565b80601f0160208091040260200160405190810160405280929190818152602001828054610b7890611040565b8015610bc55780601f10610b9a57610100808354040283529160200191610bc5565b820191906000526020600020905b815481529060010190602001808311610ba857829003601f168201915b50505091835250506001828101546001600160a01b0390811660208401526002840154908116604084015260ff600160a01b820481166060850152608090930192600160a81b9091041690811115610c1f57610c1f610e00565b6001811115610c3057610c30610e00565b815260029190910154600160b01b900460ff1615156020909101529150838015610c6f5750600082608001516001811115610c6d57610c6d610e00565b145b15610c935781838281518110610c8757610c876112a7565b60200260200101819052505b80610c9d81611333565b915050610aed565b505b5092915050565b634e487b7160e01b600052604160045260246000fd5b604051601f8201601f1916810167ffffffffffffffff81118282101715610ced57610ced610cae565b604052919050565b600067ffffffffffffffff821115610d0f57610d0f610cae565b50601f01601f191660200190565b600082601f830112610d2e57600080fd5b8135610d41610d3c82610cf5565b610cc4565b818152846020838601011115610d5657600080fd5b816020850160208301376000918101602001919091529392505050565b600060208284031215610d8557600080fd5b813567ffffffffffffffff811115610d9c57600080fd5b610da884828501610d1d565b949350505050565b60005b83811015610dcb578181015183820152602001610db3565b50506000910152565b60008151808452610dec816020860160208601610db0565b601f01601f19169290920160200192915050565b634e487b7160e01b600052602160045260246000fd5b60028110610e3457634e487b7160e01b600052602160045260246000fd5b9052565b60c081526000610e4b60c0830189610dd4565b6001600160a01b0388811660208501528716604084015260ff861660608401529050610e7a6080830185610e16565b82151560a0830152979650505050505050565b838152826020820152606060408201526000610eac6060830184610dd4565b95945050505050565b80356001600160a01b0381168114610ecc57600080fd5b919050565b60008060408385031215610ee457600080fd5b610eed83610eb5565b9150610efb60208401610eb5565b90509250929050565b60008060408385031215610f1757600080fd5b823567ffffffffffffffff811115610f2e57600080fd5b610f3a85828601610d1d565b92505060208301358015158114610f5057600080fd5b809150509250929050565b60006020808301818452808551808352604092508286019150828160051b87010184880160005b8381101561100a57603f19898403018552815160c08151818652610fa882870182610dd4565b838b01516001600160a01b03908116888d01528a850151168a88015260608085015160ff16908801526080808501519193509150610fe882880182610e16565b505060a091820151151594909101939093529386019390860190600101610f82565b509098975050505050505050565b606081016110268286610e16565b6001600160a01b0393909316602082015260400152919050565b600181811c9082168061105457607f821691505b60208210810361107457634e487b7160e01b600052602260045260246000fd5b50919050565b6000825161108c818460208701610db0565b9190910192915050565b805169ffffffffffffffffffff81168114610ecc57600080fd5b600080600080600060a086880312156110c857600080fd5b6110d186611096565b94506020860151935060408601519250606086015191506110f460808701611096565b90509295509295909350565b60006020828403121561111257600080fd5b815167ffffffffffffffff81111561112957600080fd5b8201601f8101841361113a57600080fd5b8051611148610d3c82610cf5565b81815285602083850101111561115d57600080fd5b610eac826020830160208601610db0565b601f8211156111b857600081815260208120601f850160051c810160208610156111955750805b601f850160051c820191505b818110156111b4578281556001016111a1565b5050505b505050565b815167ffffffffffffffff8111156111d7576111d7610cae565b6111eb816111e58454611040565b8461116e565b602080601f83116001811461122057600084156112085750858301515b600019600386901b1c1916600185901b1785556111b4565b600085815260208120601f198616915b8281101561124f57888601518255948401946001909101908401611230565b508582101561126d5787850151600019600388901b60f8161c191681555b5050505050600190811b01905550565b60006020828403121561128f57600080fd5b815160ff811681146112a057600080fd5b9392505050565b634e487b7160e01b600052603260045260246000fd5b60008083546112cb81611040565b600182811680156112e357600181146112f857611327565b60ff1984168752821515830287019450611327565b8760005260208060002060005b8581101561131e5781548a820152908401908201611305565b50505082870194505b50929695505050505050565b60006001820161135357634e487b7160e01b600052601160045260246000fd5b506001019056fea264697066735822122018202b98aa2d3844d00ee0806eae14490674a76709c3ba41b753310412d3744864736f6c63430008110033",
  "linkReferences": {},
  "deployedLinkReferences": {}
}