{
  "_format": "hh-sol-artifact-1",
  "contractName": "Plataforma",
  "sourceName": "contracts/Plataforma.sol",
  "abi": [
    {
      "inputs": [
        {
          "internalType": "uint256",
          "name": "_montoMinimo",
          "type": "uint256"
        }
      ],
      "stateMutability": "nonpayable",
      "type": "constructor"
    },
    {
      "inputs": [
        {
          "internalType": "string",
          "name": "_ticker",
          "type": "string"
        }
      ],
      "name": "activarToken",
      "outputs": [
        {
          "internalType": "bool",
          "name": "resultado",
          "type": "bool"
        }
      ],
      "stateMutability": "nonpayable",
      "type": "function"
    },
    {
      "inputs": [],
      "name": "archivoOrdenes",
      "outputs": [
        {
          "internalType": "Datos.ContadorOrdenes",
          "name": "cantidadTotal",
          "type": "uint256"
        },
        {
          "internalType": "Datos.ContadorOrdenes",
          "name": "cantidadActivas",
          "type": "uint256"
        },
        {
          "internalType": "string",
          "name": "ultimaOrdenActiva",
          "type": "string"
        }
      ],
      "stateMutability": "view",
      "type": "function"
    },
    {
      "inputs": [
        {
          "internalType": "string",
          "name": "_ticker",
          "type": "string"
        }
      ],
      "name": "consultarCotizacion",
      "outputs": [
        {
          "internalType": "int256",
          "name": "precio",
          "type": "int256"
        }
      ],
      "stateMutability": "view",
      "type": "function"
    },
    {
      "inputs": [
        {
          "internalType": "string",
          "name": "_string",
          "type": "string"
        }
      ],
      "name": "emptyString",
      "outputs": [
        {
          "internalType": "bool",
          "name": "",
          "type": "bool"
        }
      ],
      "stateMutability": "pure",
      "type": "function"
    },
    {
      "inputs": [
        {
          "internalType": "bool",
          "name": "_soloActivos",
          "type": "bool"
        }
      ],
      "name": "listarTokens",
      "outputs": [
        {
          "components": [
            {
              "internalType": "string",
              "name": "ticker",
              "type": "string"
            },
            {
              "internalType": "address",
              "name": "contrato",
              "type": "address"
            },
            {
              "internalType": "address",
              "name": "oraculo",
              "type": "address"
            },
            {
              "internalType": "uint8",
              "name": "decimales",
              "type": "uint8"
            },
            {
              "internalType": "enum Datos.EstadoGeneral",
              "name": "estado",
              "type": "uint8"
            },
            {
              "internalType": "bool",
              "name": "existe",
              "type": "bool"
            }
          ],
          "internalType": "struct Datos.Token[]",
          "name": "",
          "type": "tuple[]"
        }
      ],
      "stateMutability": "view",
      "type": "function"
    },
    {
      "inputs": [
        {
          "internalType": "string",
          "name": "_ticker",
          "type": "string"
        },
        {
          "internalType": "address",
          "name": "_oraculo",
          "type": "address"
        }
      ],
      "name": "modifcarOraculo",
      "outputs": [
        {
          "internalType": "bool",
          "name": "resultado",
          "type": "bool"
        }
      ],
      "stateMutability": "nonpayable",
      "type": "function"
    },
    {
      "inputs": [
        {
          "internalType": "address",
          "name": "_contrato",
          "type": "address"
        },
        {
          "internalType": "address",
          "name": "_oraculo",
          "type": "address"
        }
      ],
      "name": "nuevoToken",
      "outputs": [
        {
          "internalType": "bool",
          "name": "",
          "type": "bool"
        }
      ],
      "stateMutability": "nonpayable",
      "type": "function"
    },
    {
      "inputs": [],
      "name": "plataforma",
      "outputs": [
        {
          "internalType": "enum Datos.EstadoGeneral",
          "name": "estado",
          "type": "uint8"
        },
        {
          "internalType": "address",
          "name": "propietario",
          "type": "address"
        },
        {
          "internalType": "uint256",
          "name": "montoMinimoUSD",
          "type": "uint256"
        }
      ],
      "stateMutability": "view",
      "type": "function"
    },
    {
      "inputs": [
        {
          "internalType": "string",
          "name": "_ticker",
          "type": "string"
        }
      ],
      "name": "suspenderToken",
      "outputs": [
        {
          "internalType": "bool",
          "name": "resultado",
          "type": "bool"
        }
      ],
      "stateMutability": "nonpayable",
      "type": "function"
    },
    {
      "inputs": [
        {
          "internalType": "string",
          "name": "",
          "type": "string"
        }
      ],
      "name": "tokensMap",
      "outputs": [
        {
          "internalType": "string",
          "name": "ticker",
          "type": "string"
        },
        {
          "internalType": "address",
          "name": "contrato",
          "type": "address"
        },
        {
          "internalType": "address",
          "name": "oraculo",
          "type": "address"
        },
        {
          "internalType": "uint8",
          "name": "decimales",
          "type": "uint8"
        },
        {
          "internalType": "enum Datos.EstadoGeneral",
          "name": "estado",
          "type": "uint8"
        },
        {
          "internalType": "bool",
          "name": "existe",
          "type": "bool"
        }
      ],
      "stateMutability": "view",
      "type": "function"
    }
  ],
  "bytecode": "0x60806040523480156200001157600080fd5b506040516200245038038062002450833981016040819052620000349162000934565b6000805460018390556001600160a81b031916336101000260ff19161790556200007561101073d0d5e3db44de05e9f294bb0a3beeaf030de24ada6200010d565b50620000aa73a6fa4fb5f76172d178d61b04b0ecd319c5d1c0aa730715a7794a1dc8e42615f059dd6e406a6594651a6200010d565b50620000df73d393b1e02da9831ff419e22ea105aae4c47e1253730fcaa9c899ec5a91ebc3d5dd869de833b06fb0466200010d565b5060408051808201909152600381526244414960e81b602082015262000105906200074c565b505062000c6a565b600060013360009081526008602052604090206002015460ff1660018111156200013b576200013b6200094e565b148062000157575060005461010090046001600160a01b031633145b620001a45760405162461bcd60e51b815260206004820152602360248201526000805160206200243083398151915260448201526272657360e81b60648201526084015b60405180910390fd5b823b80620002035760405162461bcd60e51b815260206004820152602560248201527f4c6120646972656363696f6e2064656c20636f6e747261746f20657320696e76604482015264616c69646160d81b60648201526084016200019b565b50813b80620002615760405162461bcd60e51b8152602060048201526024808201527f4c6120646972656363696f6e2064656c206f726163756c6f20657320696e76616044820152636c69646160e01b60648201526084016200019b565b6001600160a01b038316620002cc5760405162461bcd60e51b815260206004820152602a60248201527f4c6120646972656363696f6e2064656c206f726163756c6f206e6f20707565646044820152696520736572206365726f60b01b60648201526084016200019b565b60008490506000816001600160a01b03166395d89b416040518163ffffffff1660e01b8152600401600060405180830381865afa15801562000312573d6000803e3d6000fd5b505050506040513d6000823e601f3d908101601f191682016040526200033c9190810190620009a0565b905060068160405162000350919062000a58565b9081526040519081900360200190206002015460ff600160b01b9091041615620003d25760405162461bcd60e51b815260206004820152602c60248201527f456c20746f6b656e2079612065737461207265676973747261646f20656e206c60448201526b6120706c617461666f726d6160a01b60648201526084016200019b565b816001600160a01b03166395d89b416040518163ffffffff1660e01b8152600401600060405180830381865afa15801562000411573d6000803e3d6000fd5b505050506040513d6000823e601f3d908101601f191682016040526200043b9190810190620009a0565b6006826040516200044d919062000a58565b9081526040519081900360200190209062000469908262000b05565b50816001600160a01b031663313ce5676040518163ffffffff1660e01b8152600401602060405180830381865afa158015620004a9573d6000803e3d6000fd5b505050506040513d601f19601f82011682018060405250810190620004cf919062000bd1565b600682604051620004e1919062000a58565b908152602001604051809103902060020160146101000a81548160ff021916908360ff160217905550856006826040516200051d919062000a58565b908152602001604051809103902060010160006101000a8154816001600160a01b0302191690836001600160a01b031602179055508460068260405162000565919062000a58565b908152602001604051809103902060020160006101000a8154816001600160a01b0302191690836001600160a01b031602179055506000600682604051620005ae919062000a58565b908152604051908190036020019020600201805460ff60a81b1916600160a81b836001811115620005e357620005e36200094e565b02179055506001600682604051620005fc919062000a58565b9081526040519081900360200190206002018054911515600160b01b0260ff60b01b19909216919091179055600780546001810182556000919091527fa66cc928b5edb82af9bd49922954155ab7b0942694bea4ce44661d9a8736c6880162000666828262000b05565b50600780546200073e91906200067f9060019062000bfd565b8154811062000692576200069262000c1f565b906000526020600020018054620006a99062000a76565b80601f0160208091040260200160405190810160405280929190818152602001828054620006d79062000a76565b8015620007285780601f10620006fc5761010080835404028352916020019162000728565b820191906000526020600020905b8154815290600101906020018083116200070a57829003601f168201915b5050505050620008c560201b62000f191760201c565b600193505050505b92915050565b600060013360009081526008602052604090206002015460ff1660018111156200077a576200077a6200094e565b148062000796575060005461010090046001600160a01b031633145b620007df5760405162461bcd60e51b815260206004820152602360248201526000805160206200243083398151915260448201526272657360e81b60648201526084016200019b565b60009050600682604051620007f5919062000a58565b9081526040519081900360200190206002015460ff600160b01b909104166200086f5760405162461bcd60e51b815260206004820152602560248201527f456c20746f6b656e20696e6772657361646f206e6f2065737461207265676973604482015264747261646f60d81b60648201526084016200019b565b600160068360405162000883919062000a58565b908152604051908190036020019020600201805460ff60a81b1916600160a81b836001811115620008b857620008b86200094e565b0217905550600192915050565b6200091081604051602401620008dc919062000c35565b60408051601f198184030181529190526020810180516001600160e01b0390811663104c13eb60e21b179091526200091316565b50565b80516a636f6e736f6c652e6c6f67602083016000808483855afa5050505050565b6000602082840312156200094757600080fd5b5051919050565b634e487b7160e01b600052602160045260246000fd5b634e487b7160e01b600052604160045260246000fd5b60005b83811015620009975781810151838201526020016200097d565b50506000910152565b600060208284031215620009b357600080fd5b81516001600160401b0380821115620009cb57600080fd5b818401915084601f830112620009e057600080fd5b815181811115620009f557620009f562000964565b604051601f8201601f19908116603f0116810190838211818310171562000a205762000a2062000964565b8160405282815287602084870101111562000a3a57600080fd5b62000a4d8360208301602088016200097a565b979650505050505050565b6000825162000a6c8184602087016200097a565b9190910192915050565b600181811c9082168062000a8b57607f821691505b60208210810362000aac57634e487b7160e01b600052602260045260246000fd5b50919050565b601f82111562000b0057600081815260208120601f850160051c8101602086101562000adb5750805b601f850160051c820191505b8181101562000afc5782815560010162000ae7565b5050505b505050565b81516001600160401b0381111562000b215762000b2162000964565b62000b398162000b32845462000a76565b8462000ab2565b602080601f83116001811462000b71576000841562000b585750858301515b600019600386901b1c1916600185901b17855562000afc565b600085815260208120601f198616915b8281101562000ba25788860151825594840194600190910190840162000b81565b508582101562000bc15787850151600019600388901b60f8161c191681555b5050505050600190811b01905550565b60006020828403121562000be457600080fd5b815160ff8116811462000bf657600080fd5b9392505050565b818103818111156200074657634e487b7160e01b600052601160045260246000fd5b634e487b7160e01b600052603260045260246000fd5b602081526000825180602084015262000c568160408501602087016200097a565b601f01601f19169190910160400192915050565b6117b68062000c7a6000396000f3fe608060405234801561001057600080fd5b506004361061009e5760003560e01c8063c20fc17b11610066578063c20fc17b1461013c578063dd47bdaf1461015c578063e6da48bd1461016f578063fb2f1a8914610182578063fe5d590e146101b357600080fd5b80634bd368c8146100a35780634e0d342a146100cc57806351bd751f146100f1578063534933581461011257806375d38fd714610125575b600080fd5b6100b76100b1366004611045565b51151590565b60405190151581526020015b60405180910390f35b6100df6100da366004611045565b6101c6565b6040516100c39695949392919061110a565b6101046100ff366004611045565b6102a8565b6040519081526020016100c3565b6100b761012036600461117b565b6103a7565b61012d6104e9565b6040516100c3939291906111c9565b61014f61014a3660046111f1565b610583565b6040516100c3919061121a565b6100b761016a3660046112d7565b61080b565b6100b761017d366004611045565b610d56565b6000546001546101a49160ff8116916101009091046001600160a01b03169083565b6040516100c393929190611301565b6100b76101c1366004611045565b610e57565b80516020818301810180516006825292820191909301209152805481906101ec90611329565b80601f016020809104026020016040519081016040528092919081815260200182805461021890611329565b80156102655780601f1061023a57610100808354040283529160200191610265565b820191906000526020600020905b81548152906001019060200180831161024857829003601f168201915b505050600184015460029094015492936001600160a01b0390811693908116925060ff600160a01b820481169250600160a81b8204811691600160b01b90041686565b60006006826040516102ba9190611363565b9081526040519081900360200190206002015460ff600160b01b909104166102fd5760405162461bcd60e51b81526004016102f49061137f565b60405180910390fd5b600060068360405161030f9190611363565b908152602001604051809103902060020160009054906101000a90046001600160a01b031690506000816001600160a01b031663feaf968c6040518163ffffffff1660e01b815260040160a060405180830381865afa158015610376573d6000803e3d6000fd5b505050506040513d601f19601f8201168201806040525081019061039a91906113de565b5091979650505050505050565b600060013360009081526008602052604090206002015460ff1660018111156103d2576103d26110d2565b14806103ed575060005461010090046001600160a01b031633145b6104095760405162461bcd60e51b81526004016102f49061142e565b6000905060068360405161041d9190611363565b9081526040519081900360200190206002015460ff600160b01b909104166104575760405162461bcd60e51b81526004016102f49061137f565b813b806104765760405162461bcd60e51b81526004016102f490611471565b6001600160a01b03831661049c5760405162461bcd60e51b81526004016102f4906114b5565b826006856040516104ad9190611363565b90815260405190819003602001902060020180546001600160a01b03929092166001600160a01b03199092169190911790555060019392505050565b600354600454600580546002919061050090611329565b80601f016020809104026020016040519081016040528092919081815260200182805461052c90611329565b80156105795780601f1061054e57610100808354040283529160200191610579565b820191906000526020600020905b81548152906001019060200180831161055c57829003601f168201915b5050505050905083565b6040805160c08101825260608082526000602083018190529282018390528181018390526080820183905260a082019290925260075460009067ffffffffffffffff8111156105d4576105d4610f80565b60405190808252806020026020018201604052801561063557816020015b6040805160c0810182526060808252600060208084018290529383018190529082018190526080820181905260a082015282526000199092019101816105f25790505b5090506000805b6007548110156108015760066007828154811061065b5761065b6114ff565b906000526020600020016040516106729190611515565b90815260200160405180910390206040518060c001604052908160008201805461069b90611329565b80601f01602080910402602001604051908101604052809291908181526020018280546106c790611329565b80156107145780601f106106e957610100808354040283529160200191610714565b820191906000526020600020905b8154815290600101906020018083116106f757829003601f168201915b50505091835250506001828101546001600160a01b0390811660208401526002840154908116604084015260ff600160a01b820481166060850152608090930192600160a81b909104169081111561076e5761076e6110d2565b600181111561077f5761077f6110d2565b815260029190910154600160b01b900460ff161515602090910152935085806107bd57506000846080015160018111156107bb576107bb6110d2565b145b156107ef57838383815181106107d5576107d56114ff565b602002602001018190525081806107eb906115a1565b9250505b806107f9816115a1565b91505061063c565b5090949350505050565b600060013360009081526008602052604090206002015460ff166001811115610836576108366110d2565b1480610851575060005461010090046001600160a01b031633145b61086d5760405162461bcd60e51b81526004016102f49061142e565b823b806108ca5760405162461bcd60e51b815260206004820152602560248201527f4c6120646972656363696f6e2064656c20636f6e747261746f20657320696e76604482015264616c69646160d81b60648201526084016102f4565b50813b806108ea5760405162461bcd60e51b81526004016102f490611471565b6001600160a01b0383166109105760405162461bcd60e51b81526004016102f4906114b5565b60008490506000816001600160a01b03166395d89b416040518163ffffffff1660e01b8152600401600060405180830381865afa158015610955573d6000803e3d6000fd5b505050506040513d6000823e601f3d908101601f1916820160405261097d91908101906115ba565b905060068160405161098f9190611363565b9081526040519081900360200190206002015460ff600160b01b9091041615610a0f5760405162461bcd60e51b815260206004820152602c60248201527f456c20746f6b656e2079612065737461207265676973747261646f20656e206c60448201526b6120706c617461666f726d6160a01b60648201526084016102f4565b816001600160a01b03166395d89b416040518163ffffffff1660e01b8152600401600060405180830381865afa158015610a4d573d6000803e3d6000fd5b505050506040513d6000823e601f3d908101601f19168201604052610a7591908101906115ba565b600682604051610a859190611363565b90815260405190819003602001902090610a9f9082611677565b50816001600160a01b031663313ce5676040518163ffffffff1660e01b8152600401602060405180830381865afa158015610ade573d6000803e3d6000fd5b505050506040513d601f19601f82011682018060405250810190610b029190611737565b600682604051610b129190611363565b908152602001604051809103902060020160146101000a81548160ff021916908360ff16021790555085600682604051610b4c9190611363565b908152602001604051809103902060010160006101000a8154816001600160a01b0302191690836001600160a01b0316021790555084600682604051610b929190611363565b908152602001604051809103902060020160006101000a8154816001600160a01b0302191690836001600160a01b031602179055506000600682604051610bd99190611363565b908152604051908190036020019020600201805460ff60a81b1916600160a81b836001811115610c0b57610c0b6110d2565b02179055506001600682604051610c229190611363565b9081526040519081900360200190206002018054911515600160b01b0260ff60b01b19909216919091179055600780546001810182556000919091527fa66cc928b5edb82af9bd49922954155ab7b0942694bea4ce44661d9a8736c68801610c8a8282611677565b5060078054610d489190610ca09060019061175a565b81548110610cb057610cb06114ff565b906000526020600020018054610cc590611329565b80601f0160208091040260200160405190810160405280929190818152602001828054610cf190611329565b8015610d3e5780601f10610d1357610100808354040283529160200191610d3e565b820191906000526020600020905b815481529060010190602001808311610d2157829003601f168201915b5050505050610f19565b600193505050505b92915050565b600060013360009081526008602052604090206002015460ff166001811115610d8157610d816110d2565b1480610d9c575060005461010090046001600160a01b031633145b610db85760405162461bcd60e51b81526004016102f49061142e565b60009050600682604051610dcc9190611363565b9081526040519081900360200190206002015460ff600160b01b90910416610e065760405162461bcd60e51b81526004016102f49061137f565b6000600683604051610e189190611363565b908152604051908190036020019020600201805460ff60a81b1916600160a81b836001811115610e4a57610e4a6110d2565b0217905550600192915050565b600060013360009081526008602052604090206002015460ff166001811115610e8257610e826110d2565b1480610e9d575060005461010090046001600160a01b031633145b610eb95760405162461bcd60e51b81526004016102f49061142e565b60009050600682604051610ecd9190611363565b9081526040519081900360200190206002015460ff600160b01b90910416610f075760405162461bcd60e51b81526004016102f49061137f565b6001600683604051610e189190611363565b610f5c81604051602401610f2d919061176d565b60408051601f198184030181529190526020810180516001600160e01b031663104c13eb60e21b179052610f5f565b50565b80516a636f6e736f6c652e6c6f67602083016000808483855afa5050505050565b634e487b7160e01b600052604160045260246000fd5b604051601f8201601f1916810167ffffffffffffffff81118282101715610fbf57610fbf610f80565b604052919050565b600067ffffffffffffffff821115610fe157610fe1610f80565b50601f01601f191660200190565b600082601f83011261100057600080fd5b813561101361100e82610fc7565b610f96565b81815284602083860101111561102857600080fd5b816020850160208301376000918101602001919091529392505050565b60006020828403121561105757600080fd5b813567ffffffffffffffff81111561106e57600080fd5b61107a84828501610fef565b949350505050565b60005b8381101561109d578181015183820152602001611085565b50506000910152565b600081518084526110be816020860160208601611082565b601f01601f19169290920160200192915050565b634e487b7160e01b600052602160045260246000fd5b6002811061110657634e487b7160e01b600052602160045260246000fd5b9052565b60c08152600061111d60c08301896110a6565b6001600160a01b0388811660208501528716604084015260ff86166060840152905061114c60808301856110e8565b82151560a0830152979650505050505050565b80356001600160a01b038116811461117657600080fd5b919050565b6000806040838503121561118e57600080fd5b823567ffffffffffffffff8111156111a557600080fd5b6111b185828601610fef565b9250506111c06020840161115f565b90509250929050565b8381528260208201526060604082015260006111e860608301846110a6565b95945050505050565b60006020828403121561120357600080fd5b8135801515811461121357600080fd5b9392505050565b60006020808301818452808551808352604092508286019150828160051b87010184880160005b838110156112c957603f19898403018552815160c08151818652611267828701826110a6565b838b01516001600160a01b03908116888d01528a850151168a88015260608085015160ff169088015260808085015191935091506112a7828801826110e8565b505060a091820151151594909101939093529386019390860190600101611241565b509098975050505050505050565b600080604083850312156112ea57600080fd5b6112f38361115f565b91506111c06020840161115f565b6060810161130f82866110e8565b6001600160a01b0393909316602082015260400152919050565b600181811c9082168061133d57607f821691505b60208210810361135d57634e487b7160e01b600052602260045260246000fd5b50919050565b60008251611375818460208701611082565b9190910192915050565b60208082526025908201527f456c20746f6b656e20696e6772657361646f206e6f2065737461207265676973604082015264747261646f60d81b606082015260800190565b805169ffffffffffffffffffff8116811461117657600080fd5b600080600080600060a086880312156113f657600080fd5b6113ff866113c4565b9450602086015193506040860151925060608601519150611422608087016113c4565b90509295509295909350565b60208082526023908201527f536f6c6f2070756564656e20616363656465722061646d696e6973747261646f60408201526272657360e81b606082015260800190565b60208082526024908201527f4c6120646972656363696f6e2064656c206f726163756c6f20657320696e76616040820152636c69646160e01b606082015260800190565b6020808252602a908201527f4c6120646972656363696f6e2064656c206f726163756c6f206e6f20707565646040820152696520736572206365726f60b01b606082015260800190565b634e487b7160e01b600052603260045260246000fd5b600080835461152381611329565b6001828116801561153b57600181146115505761157f565b60ff198416875282151583028701945061157f565b8760005260208060002060005b858110156115765781548a82015290840190820161155d565b50505082870194505b50929695505050505050565b634e487b7160e01b600052601160045260246000fd5b6000600182016115b3576115b361158b565b5060010190565b6000602082840312156115cc57600080fd5b815167ffffffffffffffff8111156115e357600080fd5b8201601f810184136115f457600080fd5b805161160261100e82610fc7565b81815285602083850101111561161757600080fd5b6111e8826020830160208601611082565b601f82111561167257600081815260208120601f850160051c8101602086101561164f5750805b601f850160051c820191505b8181101561166e5782815560010161165b565b5050505b505050565b815167ffffffffffffffff81111561169157611691610f80565b6116a58161169f8454611329565b84611628565b602080601f8311600181146116da57600084156116c25750858301515b600019600386901b1c1916600185901b17855561166e565b600085815260208120601f198616915b82811015611709578886015182559484019460019091019084016116ea565b50858210156117275787850151600019600388901b60f8161c191681555b5050505050600190811b01905550565b60006020828403121561174957600080fd5b815160ff8116811461121357600080fd5b81810381811115610d5057610d5061158b565b60208152600061121360208301846110a656fea26469706673582212209f02dc9419ae46be5f848f0bf9ae3dabc1659df70d07cb6f2ae2ffbb31ccf52e64736f6c63430008110033536f6c6f2070756564656e20616363656465722061646d696e6973747261646f",
  "linkReferences": {},
  "deployedLinkReferences": {}
}