{
  "_format": "hh-sol-artifact-1",
  "contractName": "Plataforma",
  "sourceName": "contracts/Plataforma.sol",
  "abi": [
    {
      "inputs": [
        {
          "internalType": "uint8",
          "name": "_test",
          "type": "uint8"
        }
      ],
      "stateMutability": "nonpayable",
      "type": "constructor"
    },
    {
      "anonymous": false,
      "inputs": [],
      "name": "AccesoExitoso",
      "type": "event"
    },
    {
      "inputs": [],
      "name": "prueba",
      "outputs": [],
      "stateMutability": "nonpayable",
      "type": "function"
    }
  ],
  "bytecode": "0x608060405234801561001057600080fd5b5060405161019538038061019583398101604081905261002f91610060565b600080546001600160a81b0319163360ff60a01b191617600160a01b60ff939093169290920291909117905561008a565b60006020828403121561007257600080fd5b815160ff8116811461008357600080fd5b9392505050565b60fd806100986000396000f3fe6080604052348015600f57600080fd5b506004361060285760003560e01c80637cb5946d14602d575b600080fd5b60336035565b005b6000546001600160a01b03163314609c5760405162461bcd60e51b815260206004820152602160248201527f536f6c6f20656c2070726f706965746172696f207075656465206163636564656044820152603960f91b606482015260840160405180910390fd5b6040517fb6719c462c3db96cfc7ab27c66ec69802d2b81933f5843c7dbfb02ceca167ee590600090a156fea2646970667358221220e4c84c31530f77094d71643c0c220ff1597e7ed4e4ba66a2f20579062e747ffc64736f6c63430008110033",
  "linkReferences": {},
  "deployedLinkReferences": {}
}