{
  "_format": "hh-sol-artifact-1",
  "contractName": "Plataforma",
  "sourceName": "contracts/Plataforma.sol",
  "abi": [
    {
      "inputs": [
        {
          "internalType": "uint256",
          "name": "_montoMinimo",
          "type": "uint256"
        }
      ],
      "stateMutability": "nonpayable",
      "type": "constructor"
    },
    {
      "inputs": [],
      "name": "archivoOrdenes",
      "outputs": [
        {
          "internalType": "Datos.ContadorOrdenes",
          "name": "cantidadTotal",
          "type": "uint256"
        },
        {
          "internalType": "Datos.ContadorOrdenes",
          "name": "cantidadActivas",
          "type": "uint256"
        },
        {
          "internalType": "string",
          "name": "ultimaOrdenActiva",
          "type": "string"
        }
      ],
      "stateMutability": "view",
      "type": "function"
    },
    {
      "inputs": [
        {
          "internalType": "string",
          "name": "_ticker",
          "type": "string"
        },
        {
          "internalType": "bool",
          "name": "_soloActivos",
          "type": "bool"
        }
      ],
      "name": "buscarTokens",
      "outputs": [
        {
          "components": [
            {
              "internalType": "string",
              "name": "ticker",
              "type": "string"
            },
            {
              "internalType": "address",
              "name": "contrato",
              "type": "address"
            },
            {
              "internalType": "address",
              "name": "oraculo",
              "type": "address"
            },
            {
              "internalType": "uint8",
              "name": "decimales",
              "type": "uint8"
            },
            {
              "internalType": "enum Datos.EstadoGeneral",
              "name": "estado",
              "type": "uint8"
            },
            {
              "internalType": "bool",
              "name": "existe",
              "type": "bool"
            }
          ],
          "internalType": "struct Datos.Token[]",
          "name": "resultado",
          "type": "tuple[]"
        }
      ],
      "stateMutability": "view",
      "type": "function"
    },
    {
      "inputs": [
        {
          "internalType": "string",
          "name": "_string",
          "type": "string"
        }
      ],
      "name": "emptyString",
      "outputs": [
        {
          "internalType": "bool",
          "name": "",
          "type": "bool"
        }
      ],
      "stateMutability": "pure",
      "type": "function"
    },
    {
      "inputs": [
        {
          "internalType": "address",
          "name": "_contrato",
          "type": "address"
        },
        {
          "internalType": "address",
          "name": "_oraculo",
          "type": "address"
        }
      ],
      "name": "nuevoToken",
      "outputs": [
        {
          "internalType": "bool",
          "name": "",
          "type": "bool"
        }
      ],
      "stateMutability": "nonpayable",
      "type": "function"
    },
    {
      "inputs": [],
      "name": "plataforma",
      "outputs": [
        {
          "internalType": "enum Datos.EstadoGeneral",
          "name": "estado",
          "type": "uint8"
        },
        {
          "internalType": "address",
          "name": "propietario",
          "type": "address"
        },
        {
          "internalType": "uint256",
          "name": "montoMinimoUSD",
          "type": "uint256"
        }
      ],
      "stateMutability": "view",
      "type": "function"
    },
    {
      "inputs": [
        {
          "internalType": "string",
          "name": "",
          "type": "string"
        }
      ],
      "name": "tokensMap",
      "outputs": [
        {
          "internalType": "string",
          "name": "ticker",
          "type": "string"
        },
        {
          "internalType": "address",
          "name": "contrato",
          "type": "address"
        },
        {
          "internalType": "address",
          "name": "oraculo",
          "type": "address"
        },
        {
          "internalType": "uint8",
          "name": "decimales",
          "type": "uint8"
        },
        {
          "internalType": "enum Datos.EstadoGeneral",
          "name": "estado",
          "type": "uint8"
        },
        {
          "internalType": "bool",
          "name": "existe",
          "type": "bool"
        }
      ],
      "stateMutability": "view",
      "type": "function"
    }
  ],
  "bytecode": "0x608060405234801561001057600080fd5b5060405161113338038061113383398101604081905261002f91610056565b600080546001929092556001600160a81b0319909116336101000260ff191617905561006f565b60006020828403121561006857600080fd5b5051919050565b6110b58061007e6000396000f3fe608060405234801561001057600080fd5b50600436106100625760003560e01c80634bd368c8146100675780634e0d342a1461009057806375d38fd7146100b5578063dd47bdaf146100cc578063eea3640d146100df578063fb2f1a89146100ff575b600080fd5b61007b610075366004610b2c565b51151590565b60405190151581526020015b60405180910390f35b6100a361009e366004610b2c565b610130565b60405161008796959493929190610bf1565b6100bd610212565b60405161008793929190610c46565b61007b6100da366004610c8a565b6102ac565b6100f26100ed366004610cbd565b6106c5565b6040516100879190610d14565b6000546001546101219160ff8116916101009091046001600160a01b03169083565b60405161008793929190610dd1565b805160208183018101805160068252928201919093012091528054819061015690610df9565b80601f016020809104026020016040519081016040528092919081815260200182805461018290610df9565b80156101cf5780601f106101a4576101008083540402835291602001916101cf565b820191906000526020600020905b8154815290600101906020018083116101b257829003601f168201915b505050600184015460029094015492936001600160a01b0390811693908116925060ff600160a01b820481169250600160a81b8204811691600160b01b90041686565b600354600454600580546002919061022990610df9565b80601f016020809104026020016040519081016040528092919081815260200182805461025590610df9565b80156102a25780601f10610277576101008083540402835291602001916102a2565b820191906000526020600020905b81548152906001019060200180831161028557829003601f168201915b5050505050905083565b600060013360009081526008602052604090206002015460ff1660018111156102d7576102d7610bb9565b14806102f2575060005461010090046001600160a01b031633145b61034f5760405162461bcd60e51b815260206004820152602360248201527f536f6c6f2070756564656e20616363656465722061646d696e6973747261646f60448201526272657360e81b60648201526084015b60405180910390fd5b823b806103ac5760405162461bcd60e51b815260206004820152602560248201527f4c6120646972656363696f6e2064656c20636f6e747261746f20657320696e76604482015264616c69646160d81b6064820152608401610346565b6001600160a01b0383166104155760405162461bcd60e51b815260206004820152602a60248201527f4c6120646972656363696f6e2064656c206f726163756c6f206e6f20707565646044820152696520736572206365726f60b01b6064820152608401610346565b60008490506000816001600160a01b03166395d89b416040518163ffffffff1660e01b8152600401600060405180830381865afa15801561045a573d6000803e3d6000fd5b505050506040513d6000823e601f3d908101601f191682016040526104829190810190610e33565b90506006816040516104949190610ea1565b9081526040519081900360200190206002015460ff600160b01b90910416156105145760405162461bcd60e51b815260206004820152602c60248201527f456c20746f6b656e2079612065737461207265676973747261646f20656e206c60448201526b6120706c617461666f726d6160a01b6064820152608401610346565b816001600160a01b03166395d89b416040518163ffffffff1660e01b8152600401600060405180830381865afa158015610552573d6000803e3d6000fd5b505050506040513d6000823e601f3d908101601f1916820160405261057a9190810190610e33565b60068260405161058a9190610ea1565b908152604051908190036020019020906105a49082610f0c565b50856006826040516105b69190610ea1565b908152602001604051809103902060010160006101000a8154816001600160a01b0302191690836001600160a01b03160217905550846006826040516105fc9190610ea1565b908152602001604051809103902060020160006101000a8154816001600160a01b0302191690836001600160a01b0316021790555060006006826040516106439190610ea1565b908152604051908190036020019020600201805460ff60a81b1916600160a81b83600181111561067557610675610bb9565b0217905550600160068260405161068c9190610ea1565b9081526040519081900360200190206002018054911515600160b01b0260ff60b01b199092169190911790555060019250505092915050565b6040805160c08101825260608082526000602083018190529282018390528181018390526080820183905260a082019290925283516108a35760068460405161070e9190610ea1565b90815260200160405180910390206040518060c001604052908160008201805461073790610df9565b80601f016020809104026020016040519081016040528092919081815260200182805461076390610df9565b80156107b05780601f10610785576101008083540402835291602001916107b0565b820191906000526020600020905b81548152906001019060200180831161079357829003601f168201915b50505091835250506001828101546001600160a01b0390811660208401526002840154908116604084015260ff600160a01b820481166060850152608090930192600160a81b909104169081111561080a5761080a610bb9565b600181111561081b5761081b610bb9565b815260029190910154600160b01b900460ff16151560209091015260a081015190915061087f5760405162461bcd60e51b8152602060048201526012602482015271456c20746f6b656e206e6f2065786973746560701b6044820152606401610346565b808260008151811061089357610893610fcc565b6020026020010181905250610a60565b60005b600754811015610a5e576006600782815481106108c5576108c5610fcc565b906000526020600020016040516108dc9190610fe2565b90815260200160405180910390206040518060c001604052908160008201805461090590610df9565b80601f016020809104026020016040519081016040528092919081815260200182805461093190610df9565b801561097e5780601f106109535761010080835404028352916020019161097e565b820191906000526020600020905b81548152906001019060200180831161096157829003601f168201915b50505091835250506001828101546001600160a01b0390811660208401526002840154908116604084015260ff600160a01b820481166060850152608090930192600160a81b90910416908111156109d8576109d8610bb9565b60018111156109e9576109e9610bb9565b815260029190910154600160b01b900460ff1615156020909101529150838015610a285750600082608001516001811115610a2657610a26610bb9565b145b15610a4c5781838281518110610a4057610a40610fcc565b60200260200101819052505b80610a5681611058565b9150506108a6565b505b5092915050565b634e487b7160e01b600052604160045260246000fd5b604051601f8201601f1916810167ffffffffffffffff81118282101715610aa657610aa6610a67565b604052919050565b600067ffffffffffffffff821115610ac857610ac8610a67565b50601f01601f191660200190565b600082601f830112610ae757600080fd5b8135610afa610af582610aae565b610a7d565b818152846020838601011115610b0f57600080fd5b816020850160208301376000918101602001919091529392505050565b600060208284031215610b3e57600080fd5b813567ffffffffffffffff811115610b5557600080fd5b610b6184828501610ad6565b949350505050565b60005b83811015610b84578181015183820152602001610b6c565b50506000910152565b60008151808452610ba5816020860160208601610b69565b601f01601f19169290920160200192915050565b634e487b7160e01b600052602160045260246000fd5b60028110610bed57634e487b7160e01b600052602160045260246000fd5b9052565b60c081526000610c0460c0830189610b8d565b6001600160a01b0388811660208501528716604084015260ff861660608401529050610c336080830185610bcf565b82151560a0830152979650505050505050565b838152826020820152606060408201526000610c656060830184610b8d565b95945050505050565b80356001600160a01b0381168114610c8557600080fd5b919050565b60008060408385031215610c9d57600080fd5b610ca683610c6e565b9150610cb460208401610c6e565b90509250929050565b60008060408385031215610cd057600080fd5b823567ffffffffffffffff811115610ce757600080fd5b610cf385828601610ad6565b92505060208301358015158114610d0957600080fd5b809150509250929050565b60006020808301818452808551808352604092508286019150828160051b87010184880160005b83811015610dc357603f19898403018552815160c08151818652610d6182870182610b8d565b838b01516001600160a01b03908116888d01528a850151168a88015260608085015160ff16908801526080808501519193509150610da182880182610bcf565b505060a091820151151594909101939093529386019390860190600101610d3b565b509098975050505050505050565b60608101610ddf8286610bcf565b6001600160a01b0393909316602082015260400152919050565b600181811c90821680610e0d57607f821691505b602082108103610e2d57634e487b7160e01b600052602260045260246000fd5b50919050565b600060208284031215610e4557600080fd5b815167ffffffffffffffff811115610e5c57600080fd5b8201601f81018413610e6d57600080fd5b8051610e7b610af582610aae565b818152856020838501011115610e9057600080fd5b610c65826020830160208601610b69565b60008251610eb3818460208701610b69565b9190910192915050565b601f821115610f0757600081815260208120601f850160051c81016020861015610ee45750805b601f850160051c820191505b81811015610f0357828155600101610ef0565b5050505b505050565b815167ffffffffffffffff811115610f2657610f26610a67565b610f3a81610f348454610df9565b84610ebd565b602080601f831160018114610f6f5760008415610f575750858301515b600019600386901b1c1916600185901b178555610f03565b600085815260208120601f198616915b82811015610f9e57888601518255948401946001909101908401610f7f565b5085821015610fbc5787850151600019600388901b60f8161c191681555b5050505050600190811b01905550565b634e487b7160e01b600052603260045260246000fd5b6000808354610ff081610df9565b60018281168015611008576001811461101d5761104c565b60ff198416875282151583028701945061104c565b8760005260208060002060005b858110156110435781548a82015290840190820161102a565b50505082870194505b50929695505050505050565b60006001820161107857634e487b7160e01b600052601160045260246000fd5b506001019056fea264697066735822122012433781e1d79d49f0f2ea3bdc4ef7f67a64bd9153f6ea6170e8c8497d60de6764736f6c63430008110033",
  "linkReferences": {},
  "deployedLinkReferences": {}
}