{
  "_format": "hh-sol-artifact-1",
  "contractName": "Plataforma",
  "sourceName": "contracts/Plataforma.sol",
  "abi": [
    {
      "inputs": [],
      "stateMutability": "nonpayable",
      "type": "constructor"
    },
    {
      "anonymous": false,
      "inputs": [],
      "name": "AccesoExitoso",
      "type": "event"
    },
    {
      "inputs": [],
      "name": "prueba",
      "outputs": [],
      "stateMutability": "nonpayable",
      "type": "function"
    }
  ],
  "bytecode": "0x608060405234801561001057600080fd5b5061005a6040518060400160405280601b81526020017f446972656363696f6e2064656c2070726f706965746172696f3a2000000000008152503361009f60201b6100f61760201c565b336000806101000a81548173ffffffffffffffffffffffffffffffffffffffff021916908373ffffffffffffffffffffffffffffffffffffffff16021790555061026b565b61013d82826040516024016100b592919061023b565b6040516020818303038152906040527f319af333000000000000000000000000000000000000000000000000000000007bffffffffffffffffffffffffffffffffffffffffffffffffffffffff19166020820180517bffffffffffffffffffffffffffffffffffffffffffffffffffffffff838183161783525050505061014160201b60201c565b5050565b60008151905060006a636f6e736f6c652e6c6f679050602083016000808483855afa5050505050565b600081519050919050565b600082825260208201905092915050565b60005b838110156101a4578082015181840152602081019050610189565b60008484015250505050565b6000601f19601f8301169050919050565b60006101cc8261016a565b6101d68185610175565b93506101e6818560208601610186565b6101ef816101b0565b840191505092915050565b600073ffffffffffffffffffffffffffffffffffffffff82169050919050565b6000610225826101fa565b9050919050565b6102358161021a565b82525050565b6000604082019050818103600083015261025581856101c1565b9050610264602083018461022c565b9392505050565b6103848061027a6000396000f3fe608060405234801561001057600080fd5b506004361061002b5760003560e01c80637cb5946d14610030575b600080fd5b61003861003a565b005b60008054906101000a900473ffffffffffffffffffffffffffffffffffffffff1673ffffffffffffffffffffffffffffffffffffffff163373ffffffffffffffffffffffffffffffffffffffff16146100c8576040517f08c379a00000000000000000000000000000000000000000000000000000000081526004016100bf9061023e565b60405180910390fd5b7fb6719c462c3db96cfc7ab27c66ec69802d2b81933f5843c7dbfb02ceca167ee560405160405180910390a1565b61018e828260405160240161010c92919061031e565b6040516020818303038152906040527f319af333000000000000000000000000000000000000000000000000000000007bffffffffffffffffffffffffffffffffffffffffffffffffffffffff19166020820180517bffffffffffffffffffffffffffffffffffffffffffffffffffffffff8381831617835250505050610192565b5050565b60008151905060006a636f6e736f6c652e6c6f679050602083016000808483855afa5050505050565b600082825260208201905092915050565b7f536f6c6f20656c2070726f706965746172696f2070756564652061636365646560008201527f7200000000000000000000000000000000000000000000000000000000000000602082015250565b60006102286021836101bb565b9150610233826101cc565b604082019050919050565b600060208201905081810360008301526102578161021b565b9050919050565b600081519050919050565b60005b8381101561028757808201518184015260208101905061026c565b60008484015250505050565b6000601f19601f8301169050919050565b60006102af8261025e565b6102b981856101bb565b93506102c9818560208601610269565b6102d281610293565b840191505092915050565b600073ffffffffffffffffffffffffffffffffffffffff82169050919050565b6000610308826102dd565b9050919050565b610318816102fd565b82525050565b6000604082019050818103600083015261033881856102a4565b9050610347602083018461030f565b939250505056fea2646970667358221220cf0a5fb919c36173398313f55f045a39754e4072a105d80591ac456bab26312c64736f6c63430008110033",
  "linkReferences": {},
  "deployedLinkReferences": {}
}