{
  "_format": "hh-sol-artifact-1",
  "contractName": "C",
  "sourceName": "contracts/EstructurasDePrueba.sol",
  "abi": [
    {
      "inputs": [
        {
          "internalType": "uint256[]",
          "name": "memoryArray",
          "type": "uint256[]"
        }
      ],
      "name": "f",
      "outputs": [],
      "stateMutability": "nonpayable",
      "type": "function"
    },
    {
      "inputs": [
        {
          "internalType": "uint256[]",
          "name": "",
          "type": "uint256[]"
        }
      ],
      "name": "h",
      "outputs": [],
      "stateMutability": "pure",
      "type": "function"
    }
  ],
  "bytecode": "0x608060405234801561001057600080fd5b50610457806100206000396000f3fe608060405234801561001057600080fd5b50600436106100365760003560e01c806340dcbb081461003b5780637bc5bbbf14610057575b600080fd5b6100556004803603810190610050919061037a565b610073565b005b610071600480360381019061006c919061037a565b610076565b005b50565b806000908051906020019061008c92919061014c565b506000806007815481106100a3576100a26103c3565b5b9060005260206000205050808054806100bf576100be6103f2565b5b600190038181906000526020600020016000905590556000806100e29190610199565b6100ec6000610149565b610145600080548060200260200160405190810160405280929190818152602001828054801561013b57602002820191906000526020600020905b815481526020019060010190808311610127575b5050505050610073565b5050565b50565b828054828255906000526020600020908101928215610188579160200282015b8281111561018757825182559160200191906001019061016c565b5b50905061019591906101ba565b5090565b50805460008255906000526020600020908101906101b791906101ba565b50565b5b808211156101d35760008160009055506001016101bb565b5090565b6000604051905090565b600080fd5b600080fd5b600080fd5b6000601f19601f8301169050919050565b7f4e487b7100000000000000000000000000000000000000000000000000000000600052604160045260246000fd5b610239826101f0565b810181811067ffffffffffffffff8211171561025857610257610201565b5b80604052505050565b600061026b6101d7565b90506102778282610230565b919050565b600067ffffffffffffffff82111561029757610296610201565b5b602082029050602081019050919050565b600080fd5b6000819050919050565b6102c0816102ad565b81146102cb57600080fd5b50565b6000813590506102dd816102b7565b92915050565b60006102f66102f18461027c565b610261565b90508083825260208201905060208402830185811115610319576103186102a8565b5b835b81811015610342578061032e88826102ce565b84526020840193505060208101905061031b565b5050509392505050565b600082601f830112610361576103606101eb565b5b81356103718482602086016102e3565b91505092915050565b6000602082840312156103905761038f6101e1565b5b600082013567ffffffffffffffff8111156103ae576103ad6101e6565b5b6103ba8482850161034c565b91505092915050565b7f4e487b7100000000000000000000000000000000000000000000000000000000600052603260045260246000fd5b7f4e487b7100000000000000000000000000000000000000000000000000000000600052603160045260246000fdfea264697066735822122031c3a51700cd02fca7ce2a9f31a020604c67c15214e608ad301af48cba5b9cad64736f6c63430008110033",
  "linkReferences": {},
  "deployedLinkReferences": {}
}