{
  "_format": "hh-sol-artifact-1",
  "contractName": "User",
  "sourceName": "contracts/EstructurasDePrueba.sol",
  "abi": [
    {
      "inputs": [
        {
          "internalType": "uint256",
          "name": "k",
          "type": "uint256"
        },
        {
          "internalType": "uint256",
          "name": "v",
          "type": "uint256"
        }
      ],
      "name": "insert",
      "outputs": [
        {
          "internalType": "uint256",
          "name": "size",
          "type": "uint256"
        }
      ],
      "stateMutability": "nonpayable",
      "type": "function"
    },
    {
      "inputs": [],
      "name": "sum",
      "outputs": [
        {
          "internalType": "uint256",
          "name": "s",
          "type": "uint256"
        }
      ],
      "stateMutability": "view",
      "type": "function"
    }
  ],
  "bytecode": "0x608060405234801561001057600080fd5b506104d1806100206000396000f3fe608060405234801561001057600080fd5b50600436106100365760003560e01c80631d834a1b1461003b578063853255cc1461006b575b600080fd5b61005560048036038101906100509190610357565b610089565b60405161006291906103a6565b60405180910390f35b6100736100b0565b60405161008091906103a6565b60405180910390f35b60006100a1838360006101209092919063ffffffff16565b50600060020154905092915050565b6000806100bd6000610214565b90505b6100d481600061022890919063ffffffff16565b1561011c5760006100ef82600061023c90919063ffffffff16565b91505080836100fe91906103f0565b92505061011581600061029190919063ffffffff16565b90506100c0565b5090565b6000808460000160008581526020019081526020016000206000015490508285600001600086815260200190815260200160002060010181905550600081111561016e57600191505061020d565b8460010180549050905084600101600181600181540180825580915050039060005260206000209050506001816101a591906103f0565b85600001600086815260200190815260200160002060000181905550838560010182815481106101d8576101d7610424565b5b90600052602060002090600202016000018190555084600201600081548092919061020290610453565b919050555060009150505b9392505050565b60006102218260006102b1565b9050919050565b600082600101805490508210905092915050565b600080600083905084600101818154811061025a57610259610424565b5b9060005260206000209060020201600001549250846000016000848152602001908152602001600020600101549150509250929050565b60006102a9836001846102a491906103f0565b6102b1565b905092915050565b60005b8260010180549050821080156102fb57508260010182815481106102db576102da610424565b5b906000526020600020906002020160010160009054906101000a900460ff165b1561031357818061030b90610453565b9250506102b4565b81905092915050565b600080fd5b6000819050919050565b61033481610321565b811461033f57600080fd5b50565b6000813590506103518161032b565b92915050565b6000806040838503121561036e5761036d61031c565b5b600061037c85828601610342565b925050602061038d85828601610342565b9150509250929050565b6103a081610321565b82525050565b60006020820190506103bb6000830184610397565b92915050565b7f4e487b7100000000000000000000000000000000000000000000000000000000600052601160045260246000fd5b60006103fb82610321565b915061040683610321565b925082820190508082111561041e5761041d6103c1565b5b92915050565b7f4e487b7100000000000000000000000000000000000000000000000000000000600052603260045260246000fd5b600061045e82610321565b91507fffffffffffffffffffffffffffffffffffffffffffffffffffffffffffffffff82036104905761048f6103c1565b5b60018201905091905056fea2646970667358221220ebce02452de7e996d1d1f837e1afc170f7ef65fa45af4b385c4494a7932bf21164736f6c63430008110033",
  "linkReferences": {},
  "deployedLinkReferences": {}
}