{
  "_format": "hh-sol-artifact-1",
  "contractName": "Pruebas",
  "sourceName": "contracts/Test.sol",
  "abi": [
    {
      "inputs": [],
      "stateMutability": "nonpayable",
      "type": "constructor"
    },
    {
      "inputs": [],
      "name": "getArray",
      "outputs": [
        {
          "internalType": "uint256[]",
          "name": "",
          "type": "uint256[]"
        }
      ],
      "stateMutability": "view",
      "type": "function"
    },
    {
      "inputs": [
        {
          "internalType": "bool",
          "name": "_soloActivos",
          "type": "bool"
        }
      ],
      "name": "listar",
      "outputs": [
        {
          "components": [
            {
              "internalType": "uint256",
              "name": "valor",
              "type": "uint256"
            },
            {
              "internalType": "bool",
              "name": "existe",
              "type": "bool"
            }
          ],
          "internalType": "struct Pruebas.Tipo[]",
          "name": "",
          "type": "tuple[]"
        }
      ],
      "stateMutability": "view",
      "type": "function"
    },
    {
      "inputs": [],
      "name": "tamanio",
      "outputs": [
        {
          "internalType": "uint256",
          "name": "",
          "type": "uint256"
        }
      ],
      "stateMutability": "view",
      "type": "function"
    }
  ],
  "bytecode": "0x608060405234801561001057600080fd5b506040805180820182526000808252602080830182815284518086018652838152808301848152865180880188528581528085018681528851808a018a526001808a528087526002865280855260038452888352600482528188018181528a5182548084018455838c527fb10e2d527612073b26eecdfd717e6a320cf44b4afac2b0732d9fcbe2b7fa0cf690810191909155875183548085018555820155855183548085018555820155835183548085018555909101558a518a52978990528a892099518a559551988601805460ff199081169a15159a909a179055845188528988209451855592519385018054891694151594909417909355805186528786209051815591519183018054871692151592909217909155805184529483209451855590519301805490921692151592909217905561053290819061015590396000f3fe608060405234801561001057600080fd5b50600436106100415760003560e01c8063838c071514610046578063ada8adda1461005c578063d504ea1d1461007c575b600080fd5b6001546040519081526020015b60405180910390f35b61006f61006a366004610370565b610091565b6040516100539190610399565b610084610268565b60405161005391906103ea565b60015460609060009067ffffffffffffffff8111156100b2576100b261042e565b6040519080825280602002602001820160405280156100f757816020015b60408051808201909152600080825260208201528152602001906001900390816100d05790505b506040805180820190915260008082526020820152909150600061015960405180604001604052806008815260200167028393ab2b1309d160c51b815250600160008154811061014957610149610444565b90600052602060002001546102c0565b60005b60015481101561025e576000806001838154811061017c5761017c610444565b600091825260208083209091015483528281019390935260409182019020815180830183528154815260019091015460ff161515818401528151808301909252600a825269022b632b6b2b73a379d160b51b9282019290925281519194506101e3916102c0565b85806101f0575082602001515b1561024c578284838151811061020857610208610444565b6020026020010181905250818061021e9061045a565b92505061024c6040518060400160405280600a8152602001695365206167726567612160b01b815250610309565b806102568161045a565b91505061015c565b5091949350505050565b606060018054806020026020016040519081016040528092919081815260200182805480156102b657602002820191906000526020600020905b8154815260200190600101908083116102a2575b5050505050905090565b61030582826040516024016102d69291906104c7565b60408051601f198184030181529190526020810180516001600160e01b0316632d839cb360e21b17905261034f565b5050565b61034c8160405160240161031d91906104e9565b60408051601f198184030181529190526020810180516001600160e01b031663104c13eb60e21b17905261034f565b50565b80516a636f6e736f6c652e6c6f67602083016000808483855afa5050505050565b60006020828403121561038257600080fd5b8135801515811461039257600080fd5b9392505050565b602080825282518282018190526000919060409081850190868401855b828110156103dd5781518051855286015115158685015292840192908501906001016103b6565b5091979650505050505050565b6020808252825182820181905260009190848201906040850190845b8181101561042257835183529284019291840191600101610406565b50909695505050505050565b634e487b7160e01b600052604160045260246000fd5b634e487b7160e01b600052603260045260246000fd5b60006001820161047a57634e487b7160e01b600052601160045260246000fd5b5060010190565b6000815180845260005b818110156104a75760208185018101518683018201520161048b565b506000602082860101526020601f19601f83011685010191505092915050565b6040815260006104da6040830185610481565b90508260208301529392505050565b602081526000610392602083018461048156fea2646970667358221220efdd3d3b3fc1c09a1b84bcd43da30b03708da4787e084898e973cfd66b913a8764736f6c63430008110033",
  "linkReferences": {},
  "deployedLinkReferences": {}
}